:020000040800F2
:1000000010C500205D020008797400080B5F00082D
:1000100025740008A11000085383000800000000A8
:100020000000000000000000000000009D0100082A
:10003000512C000800000000F9010008857B000831
:1000400077020008770200087702000877020008AC
:10005000770200087702000877020008770200089C
:10006000770200087702000877020008BD28000820
:1000700077020008C9280008770200087702000804
:10008000D5280008770200087702000877020008E8
:10009000CD100008770200087702000877020008F8
:1000A000770200087702000877020008770200084C
:1000B000557C0008770200087702000877020008E4
:1000C000770200087702000877020008770200082C
:1000D00077020008018200086D820008770200089C
:1000E000770200087702000877020008770200080C
:1000F00077020008770200087702000877020008FC
:1001000077020008770200087702000877020008EB
:1001100077020008357F00087702000877020008A0
:100120007702000877020008E1280008770200083B
:1001300077020008770200087702000877020008BB
:1001400061120008770200087702000877020008B1
:10015000770200087702000877020008770200089B
:10016000770200087702000877020008770200088B
:1001700077020008770200087702000800000000FC
:100180007702000877020008DFF80CD000F0CAFB05
:1001900000480047F1C3000810C500202C4B196827
:1001A0000868B0E8F04F80F30988BFF36F8F4FF015
:1001B000000080F3118870470000000008480068C4
:1001C000006880F308884FF0000080F3148862B65E
:1001D00061B6BFF34F8FBFF36F8F00DF00BF00BF6B
:1001E00008ED00E0DFF80C00016841F470010160E7
:1001F000704700BF88ED00E0EFF30980BFF36F8F19
:10020000134B1A681EF0100F08BF20ED108A20E96A
:10021000F04F106009B44FF0500080F31188BFF325
:100220004F8FBFF36F8F0FF0B3FA4FF0000080F3E2
:10023000118809BC19680868B0E8F04F1EF0100F6B
:1002400008BFB0EC108A80F30988BFF36F8F704746
:1002500014120020EFF30580704700000648804725
:1002600006480047FEE7FEE7FEE7FEE7FEE7FEE79B
:10027000FEE7FEE7FEE7FEE7397C0008890100089B
:100280002DE9F05F0546002092469B4688460646CB
:10029000814640241BE0284641464746224600F05E
:1002A0003AFA53465A46C01A914110D3114618469D
:1002B000224600F021FA2D1A67EB01084F4622462C
:1002C0000120002100F018FA17EB00094E41201E12
:1002D000A4F10104DFDC484631462A464346BDE826
:1002E000F09F40EA01039B0703D009E008C9121FF1
:1002F00008C0042AFAD203E011F8013B00F8013BE0
:10030000521EF9D27047D2B201E000F8012B491E0B
:10031000FBD270470022F6E710B513460A460446A2
:100320001946FFF7F0FF204610BD2DE9FE4F80462D
:1003300081EA0300C00F0C46009021F0004123F039
:100340000045B8EB0200A94105D24046214690463F
:100350001C460B46024623F00040104347D0270DB1
:10036000C7F30A00C3F30A510290401A01904028D3
:100370006BDAC3F3130040F4801B0098924620B15F
:100380000023D2EB030A63EB0B0B01985946C0F133
:100390004002504600F0B0F906460D465046594618
:1003A000019A00F0C8F910EB08006141002487EAC7
:1003B000115284EAE7731A4340D0009A62B3019A5B
:1003C000012A4FEA075215DC001B61EB02014FF0D6
:1003D000004202EA0752CDE90042001C41F58011BB
:1003E00032462B4600F0FFF903B0BDE8F08F4046DF
:1003F0002146F9E7001B61EB0201001C41F5801367
:1004000000185B412018A2F5001747EB030140EAF2
:10041000D570B6196D4111E06D084FEA360645EA10
:10042000C0754FEA0752001B61EB0201001C41F549
:10043000801149084FEA30000019514132462B46DD
:1004400003B0BDE8F04F00F0BFB9009801224000B2
:100450000023D0EB020263EBE073009821464FEAE1
:10046000E074B8EB000061EB0401E9E783F00043BE
:100470005BE781F0004158E72DE9FE4F81EA030474
:1004800004F0004421F0004100944FF0000B23F0F1
:10049000004350EA01045ED052EA03045BD0C3F388
:1004A0000A54C1F30A552C44A4F2F3340194A0FB7E
:1004B0000254C1F3130141F48011C3F3130343F455
:1004C000801301FB024400FB034E840A970A44EAAE
:1004D000815447EA8357A4FB076802958D0A05FB00
:1004E00007854FEA932C04FB0C542705029D4FEA25
:1004F000065847EA1637B5EB08056EEB070C870E72
:10050000920E47EA811742EA8312A7FB0201B6EB7B
:100510000B0164EB00042B0D43EA0C335E1844EB33
:100520001C50DA465146E7FB0201C5F313044FEABB
:100530000B3343EA14534FEA0432019C43EA0603A7
:10054000A4F10C040294009CCDE900B400F04BF936
:1005500003B0BDE8F08F00200146F9E72DE9F04D2A
:1005600081EA030404F0004B21F0004514464FF0EB
:10057000000A23F0004150EA050220D054EA0102AB
:100580001DD0C5F30A570246C5F31303C1F3130088
:10059000C1F30A5640F4801543F48013A7EB060814
:1005A000101BD64608F2FD3873EB050002D308F1A4
:1005B000010801E092185B41B8F1000F03DA002056
:1005C0000146BDE8F08D00204FF4801106468446B8
:1005D0000EE0171B73EB050705D3121B63EB050336
:1005E00006434CEA010C49084FEA300092185B417F
:1005F00050EA0107EDD152EA030012D082EA04006A
:1006000083EA0501084305D0101BAB4106D2012245
:10061000002306E000224FF0004302E06FF00102E9
:1006200053101AEB06004CEB085110EB0A0041EB9B
:100630000B01BDE8F04D00F0C7B80EB5C10F80EA60
:10064000E0700844CA07002140F233438DE80E00F1
:100650000A460B4600F0C7F803B000BD70B5C1F301
:100660000A5201F000450024C1F3130140F2FF33A8
:1006700041F480119A4201DA002070BD40F2334308
:100680009A42A2F2334203DC524200F044F800E006
:1006900090402C43F1D0404270BD00F0004230F059
:1006A00000400AD0C10D01F56071C0F3160042EAA6
:1006B0000151C208400711437047002001467047AE
:1006C00001F0004330B421F0004150EA010206D0AD
:1006D0000A0DA2F56072C1F31301002A02DC30BCDE
:1006E00000207047440F44EAC104C100E01830BC48
:1006F00000EBC25000F031B8202A04DB203A00FAA7
:1007000002F1002070479140C2F1200320FA03F368
:10071000194390407047202A04DB203A21FA02F066
:100720000021704721FA02F3D040C2F1200291402B
:10073000084319467047202A06DBCB17203A41FAB6
:1007400002F043EAE07306E041FA02F3D040C2F15E
:10075000200291400843194670470029A8BF7047FE
:10076000401C490008BF20F00100704710B4B0FAE7
:1007700080FC00FA0CF050EA010404BF10BC704782
:1007800049B1CCF1200421FA04F411FA0CF118BF9C
:10079000012121430843A3EB0C01CB1D4FEA00616B
:1007A0004FEA102042BF002010BC704700EBC3503E
:1007B00010440029A4BF10BC7047401C490008BF6A
:1007C00020F0010010BC704710B5141E73F1000436
:1007D00008DA401C41F1000192185B411A4301D133
:1007E00020F0010010BD2DE9F04D92469B4611B15D
:1007F000B1FA81F202E0B0FA80F220329046FFF7BF
:100800007BFF04460F4640EA0A0041EA0B015346CB
:100810005A46084313D0114653EA010019D0C8F1D3
:1008200040025046FFF777FF05460E4650465946B0
:100830004246FFF761FF084305D0012004E020464F
:100840003946BDE8F08D0020054346EAE0762C43AA
:1008500037430A986305E40AA0EB08000022FD0A6A
:1008600044EA47540A3002D500200146E9E7010571
:1008700010196941DDE9084500196941BDE8F04DED
:10088000A2E72DE9F04D00231A461B1A8A4103DB2B
:1008900000200146BDE8F08DC1F30A52C1F31301F7
:1008A00041F480154FF0000BD10702D100186D41C3
:1008B000521E0027044640F2FF11384601EB620A3F
:1008C0003E468046024600204FF48011FFF723FF8A
:1008D000C2197141BB1846EB0100B4EB030C75EB78
:1008E000000C04D3E41A65EB000517460E462419E4
:1008F00008F101006D4180463428E3DDF91946EB2B
:100900000600091BA84103D24FF0FF32134601E055
:10091000002213461BEB070046EB0A51BDE8F04DE1
:10092000FFF752BF064C074D06E0E06840F00103B8
:1009300094E8070098471034AC42F6D3FFF728FC40
:1009400064230108842301080EB540F2334102916B
:100950000021CDE900110A460B46FFF744FF03B022
:1009600000BD70B58C1810F8015B15F0070301D1BC
:1009700010F8013B2A1106D110F8012B03E010F802
:10098000016B01F8016B5B1EF9D12B0705D4002325
:10099000521E0DD401F8013BFAE710F8013BCB1AC7
:1009A000921C03E013F8015B01F8015B521EF9D5BC
:1009B000A142D8D3002070BD70470000464910B551
:1009C0004A6822F440324A604A6843681A434A60DF
:1009D00001684A6822F480724A6001684A680369C3
:1009E00042EA03224A6001684A6822F040724A6083
:1009F00001684A6883681A434A6001688A6822F479
:100A000000628A6001688A68C3681A438A60816AE2
:100A10006FF07062D14201688A6822F070628A6069
:100A200001688A680CD0836A1A438A6001688A6800
:100A300022F040528A6001688A68C36A1A4301E062
:100A400022F040528A6001688A6822F002028A60BD
:100A500001688A68037E42EA43028A6090F82010A7
:100A6000002901684A680FD042F400624A600168B8
:100A70004A6822F460424A6001684A68174C436A37
:100A800004EB43331A4301E022F400624A60016838
:100A9000CA6A22F47002CA620168CA6A838B104C67
:100AA00004EB03531A43CA6201688A6822F4007295
:100AB0008A6001688A6890F8303042EA43228A608E
:100AC00001688A6822F480628A6001688A684069E5
:100AD00042EA8020886010BD0023014000E0FFFF53
:100AE0000000F0FF114810B5418A09B1012000E073
:100AF000002010EAD13F0E484FF00003827800D06A
:100B000012B151B1012409E002780121012A02D079
:100B10000170817010BD0370FBE7002414EAD13F1F
:100B2000F8D1012AF6D1837010BD00007A000020B0
:100B3000CC11002030B50C4605000CD0022C0AD98F
:100B40000548A11E0288284603F070F9291901F80A
:100B5000020D000A487030BD6411002030B50C460B
:100B600005000AD0022C08D9601E81B2FF22284657
:100B700003F072F9291901F8010C30BD2DE9F0419B
:100B800016462DED0A8B0F468046B3F90030DDE99D
:100B9000110500EE103ADDE91321F8EEC01AFE4C03
:100BA000DDF840C0C4ED0F1ABCF9003000EE103A79
:100BB000B8EEC00A84ED100AB0F90030B4F90000B4
:100BC00093FBF0F313FB00F000EE100AB8EEC00A3E
:100BD00084ED110AB5F9000000EE100AF8EEC00A23
:100BE000C4ED120AB2F9000000EE100AB8EEC01A05
:100BF00084ED131AB1F9000060EE810A00EE100ACC
:100C0000B8EEC00A84ED140A20EE800A206F401C62
:100C1000B5EEC00A2067F1EE10FA7DD0DF4D297BDA
:100C20009FEDDF8AFDEEE10AB0EE480A10EE900A71
:100C300000B20BF0B0FB84ED0F0AD4ED100A297B53
:100C4000B0EE480AFDEEE00A10EE900A00B20BF09A
:100C5000A2FB84ED100AD4ED110A297BB0EE480AFC
:100C6000FDEEE00A10EE900A00B20BF094FB94ED5A
:100C70000F1ADFEDCC0A21EE201A20EE200A84EDB7
:100C80000F1A94ED101A21EE201A84ED101A84ED3B
:100C9000110AD4ED120A297BB0EE000AFDEEE00A3B
:100CA00010EE900A00B20BF089FB84ED120AD4ED2D
:100CB000130A297BB0EE000AFDEEE00A10EE900A5E
:100CC00000B20BF07BFB84ED130AD4ED140A297BF0
:100CD000B0EE000AFDEEE00A10EE900A00B20BF052
:100CE0006DFB84ED140AF0EE400A94ED120A94EDC7
:100CF000131A20EE000A01EE010A00EEA00A0BF022
:100D0000D3FA84ED080AD4ED120A20EE805A84ED5D
:100D1000125AD4ED130A00E05DE160EE804AB0EEB5
:100D2000008AC4ED134AD4ED140A60EE802AC4EDA3
:100D3000142A94ED050AD4ED070AD4ED041A94EDB3
:100D4000061A20EE202A01EEC12A62EE085A21EE90
:100D5000802AC4ED095A22EEA53A01EE202A62EE5D
:100D6000083A21EEA12AC4ED0A3A00EE402A01EE2B
:100D7000412A00EEA02A84ED0B2A24EE824A05EED9
:100D8000423A02EEE34A65EE233A44EEE53A84ED58
:100D90000C4A84ED0D3AC4ED0E3AD4ED152A94EDCB
:100DA000022A44EE022AC4ED152AD4ED165A43EE67
:100DB000025AC4ED165A94ED175A03EE825A84ED86
:100DC000175A94ED0F2AD4ED014A04EE842A72EEEC
:100DD000222AC4ED0F2A94ED102A04EE832A32EE63
:100DE000252A84ED102A94ED113A61EE825A04EE20
:100DF000A33A60EE623AF0EE404A41EE423A33EEF8
:100E0000053AB0EE615A84ED113AC4ED181A84ED3A
:100E1000190A40EEC33A84ED1A1AC4ED1B0A94ED88
:100E2000034A40EE435A03EE845A61EEA23A40EE82
:100E3000A25A41EE033A84ED045A40EEC23A43EE20
:100E4000844AC4ED054A61EE831AF0EE413A45EE5C
:100E5000843A40EE021A25EE050AC4ED063A04EE85
:100E6000A40A41EE621A03EEA30A41EE840AC4ED1D
:100E7000070A00EEA00A0BF017FA84ED080AD4ED79
:100E8000040A20EE80BA84ED04BAD4ED050A20EEFF
:100E9000809A84ED059AD4ED060A60EE809AC4ED3E
:100EA000069AD4ED070A60EE808A2BEE0B0AC4ED99
:100EB000078A09EE490A09EEE90A08EEA80A10EEC7
:100EC000100AFFF7EAFB29EE880A6BEE080A41ECEC
:100ED0001A0B20EE280A00EE890A10EE100AFFF71E
:100EE000DCFB41EC100BB0EE4A1AF0EE6A1A08F087
:100EF000BFF99FED2DAB51EC100B53EC1A2BFFF704
:100F0000BBFAFFF7DDFB386094ED050AD4ED070A64
:100F100094ED061A20EE080A20EE200AD4ED040A09
:100F200060EE880A00EEC10A10EE100AFFF7B5FB6A
:100F300041EC100B07F080FE9FED1D1B51EC100BD8
:100F400053EC112BFFF798FAFFF7BAFBC8F8000033
:100F500094ED04CA94ED059AD4ED069A2CEE0C0A91
:100F6000D4ED078A09EE090A09EEE90A08EEE80A53
:100F700010EE100AFFF791FB29EE290A41EC1B0B3A
:100F80000CEE280A20EE080A10EE100AFFF785FB87
:100F900041EC100B10E00000040000203015002090
:100FA0000000FA44728A8E3C0000006066A64C4045
:100FB0000000006066A64CC0B0EE4B1AF0EE6B1A53
:100FC00008F056F953EC1A2B51EC100BFFF754FABA
:100FD000FFF776FB30600020BDEC0A8BBDE8F081A6
:100FE0002DE9FE4F1546DDE90C9A0E4607460C2208
:100FF0001C466946104605F019FFBDF80080BDF893
:1010000002C0BDF80430BDF80620BDF80810BDF8D8
:101010000A00A4F80080A9F800C0AAF800303A80BD
:1010200031802880BDE8FE8F38B5194809F058FB9B
:1010300008F0CAFF164808F08BFF044608F0C4FF0A
:1010400024BB01208DF800000146114A684609F0D2
:10105000D5FB08F0B9FF0E4806F0FFFB00208DF825
:1010600000000B4A0121684609F0C8FB08F0ACFFFC
:10107000074806F0C8FB02208DF80000044A012151
:10108000684609F0BBFB044608F09EFF204638BDC9
:1010900030150020014880ED010A7047040000204F
:1010A000FEE7000000B58BB0684600F03BF96946EA
:1010B000054803F057F80221034802F0DDFF02481B
:1010C00003F07EFB0BB000BD7C7E0020014803F0E6
:1010D0005AB900007C7E00200A460146014800F013
:1010E000F3B900007C7E002038B50C4605460D485B
:1010F00003F033F90028FAD00B4900206B468860D2
:101100000D60C86008200861206888616068C86157
:1011100001F11802034802F0C1FF002800D00120AD
:1011200038BD00007C7E0020C812002070B53D4C08
:10113000A0F50072013A16D0A0F50072023A18D05C
:10114000A0F50072033A1BD0B0F5017F1BD040F22E
:10115000AD1290421ED1104600F0F2F83249012043
:1011600081F89B0070BDE2682E4890472D482169A8
:101170003AE02C48A26A1C3005469047E16A32E00A
:101180002848626C2BE02748226E54300546904771
:10119000616E28E04FF4D772904211D0521C9042F9
:1011A0000ED0D21E90420BD0521E904208D0521E3A
:1011B000904205D0521E904202D0521E904204D15D
:1011C000BDE87040104600F0BBB8B0F5027F0ED00D
:1011D000A0F50072073AC5D1144C2046626C383035
:1011E00005469047A16C2846BDE870400847104C62
:1011F0002046E26890472169204688472168886830
:10120000B0F5C05F02DDA0F5405004E010F5C05F0E
:1012100002DA00F540508860246806481ECC80E859
:101220001E0070BD8801002016160020E403002077
:10123000A4020020B415002000B58BB0684600F071
:1012400071F86946054802F08DFF0221034802F05B
:1012500013FF024803F0B4FA0BB000BDA47E0020D7
:10126000014803F090B80000A47E00200A46014621
:10127000014800F029B90000A47E002070B5254C7B
:10128000A0F50072023A1ED0A0F50072063A21D0F5
:10129000A0F50072053A24D01F4CA0F50072073A61
:1012A0002AD0B0F5027F0DD104F13800626C0546FA
:1012B0009047A16C28468847A26B184820321ECA66
:1012C00080E81E0070BD1348A26A1C300546904796
:1012D000E16A0DE00F48226E543005469047616E7A
:1012E00006E00C48E26F703005469047D4F8801055
:1012F0002846BDE8704008470748A26A1C300546EA
:101300009047E16A28468847E169054810311EC9BF
:10131000D6E70000E4030020A4020020D41500203A
:10132000C41500200021016041608160C16001613D
:1013300001224161C0E90612C0E90821704700009E
:1013400070B50023424CA0F58075AD3D34D0B0F5AA
:10135000D77F54D03F4DA0F58076AF3E3DD0B0F55D
:10136000D67F54D0A0F58076AB3E35D1087884F88E
:101370008A00487884F88B00887884F88C00100202
:10138000CA185B1CD278DBB20243042BF7D344F8B3
:101390008D2F0120A07428684FF47A63401C2860C8
:1013A0002D4801682D48994243DA01462C4B896843
:1013B0009A4238DD0F393AE0088840BAA4F8630051
:1013C000488840BAA4F86500888840BAA4F861004B
:1013D000C88840BAA4F85F0070BD1002CA5C5B1CEC
:1013E0000243DBB2042BF8D344F86C2F888840BA50
:1013F000A080C88840BA60810020686070BD0888FD
:1014000040BA24F8680F488840BA608070BD0878F8
:1014100004F84D0F48786070488840BA608088882A
:1014200040BAA08070BD0F4B9A42FBDA0F31816049
:1014300070BD9942FCDD09490B4B49699A4201DDB7
:10144000143903E0094B9A42F2DA1431416170BD5C
:1014500016160020CC040020DC080020140900200F
:101460009A991941CDCC14419A99794133337341FA
:1014700010B5124A016891420DD1114B00211C4652
:10148000A3F11C0202F0F5FE0D4821461C3800684D
:10149000FFF74CFE10BD0B4A9142FBD1084B0021D7
:1014A00024331C46A3F11C0202F0E3FE044821464B
:1014B00008300068FFF7E2FE10BD00000064004045
:1014C0009C12002000680040F8B50D4606460068F2
:1014D0001C491446884206D11B4802F03EFF0028F2
:1014E000FAD01A4909E01A49884228D1194802F06D
:1014F00034FF0028FAD015492031002088600D60A3
:10150000C8600820086120886B46000A08762078A9
:101510004876608801F11802000A8876A078C876BB
:10152000A088000A087720794877E088000A887741
:10153000A079C877304602F0B1FD002800D0012024
:10154000F8BD0000006400407C7E0020C81200202E
:1015500000680040A47E00200B4628B1012807D176
:1015600011461846FFF782BE11461846FFF7B4BD74
:1015700070471CB5002200920192027B6B462DF849
:101580001210017831B1012903D180681946FFF7A3
:101590006DFE1CBD80681946FFF79EFD1CBD000056
:1015A0002DE9F047DFF8C082B14E4FF001092DED73
:1015B000028B0025D8F80800A8F56F744178AB4875
:1015C000D0ED060A90ED040A90ED031A30EEC00A41
:1015D000FDEEC00A90ED050A31EE400ABDEEC00AEC
:1015E00011B101291FD021E1718A09B1012200E066
:1015F0000022C1F340310A4203D0A581E581258252
:1016000014E110EE901AA18110EE101AE18190ED14
:10161000000ADFED980A20EE200ABDEEC00A10EEA7
:10162000100A208202E110EE900A208110EE100ACA
:1016300060819148006890ED020AB8EEC00ADFEDC3
:101640008F0A80EE201AB0EE000A61EE000A9FEDCC
:101650008C0A20EE808A18EE100AFFF71EF841EC83
:10166000100B07F0FDFE51EC100BFFF729F808EE08
:10167000900A18EE100AFFF710F841EC100B07F073
:1016800053FF51EC100BFFF71BF8B4F9081000EEF4
:10169000100A00EE901AB4F90A00F8EEE00A20EE03
:1016A000A81A00EE900AF8EEE00A00EEC01AFDEE6D
:1016B000C10A10EE902A00EE901AA281F8EEE00A1C
:1016C00060EE800A00EE100AB8EEC00A40EE280A6A
:1016D000BDEEE00A10EE100AE0816348A43800F085
:1016E000D9FEBDEEC00A44F6206110EE100A00B229
:1016F0002082884202DC4942884200DA0846208281
:10170000D8F80870B6EE000A3B796BB3B4F90C0058
:10171000B4F91410884201DD084603E04A429042C1
:1017200000DA104600EE900AF8EEE00A60EE800A59
:10173000FDEEE00A10EE900AA081B4F90E00884296
:1017400001DD084603E04A42904200DA104600EE0E
:10175000900AF8EEE00A20EE800ABDEEC00A10EE14
:10176000100AE081218251E000F57A61B1F5FA5F5B
:101770004CD9002801DD024600E04242B4F90C10C9
:101780008A4205DA002801DD01460FE041420DE002
:10179000002801DD024600E0424252428A4205DD55
:1017A000002801DD014600E04142494200EE901A66
:1017B0000028F8EEE00A60EE800AFDEEE00A10EE86
:1017C000901AA18101DD024600E04242B4F90E10F8
:1017D0008A4202DA00280EDC0AE0002801DD024617
:1017E00000E0424252428A4204DD002800DC4042CE
:1017F000404200E0084600EE900AF8EEE00A20EED3
:10180000800ABDEEC00A10EE100AE081708A08B1AD
:10181000012200E00022C0F340210A4201D0E27818
:1018200042B100B10120084200D1E570708A70B168
:1018300001210DE0484684F803901BB1012BF5D13E
:101840003D71F3E73871D8F808004571EEE70021E3
:10185000C0F30010014205D084F80590BDEC028B66
:10186000BDE8F0876571F9E794080020981500201D
:101870007A00002000003443A4020020000040460B
:10188000DA0F494010B500F013F80848007810B19D
:10189000012803D004E000F043FB01E000F038F938
:1018A00000F038FDBDE8104000F0B2BA100500208D
:1018B00010B500F047F800F01FF800F0AFFDBDE8EC
:1018C000104000F0D7B800000548C17840F29240BF
:1018D000002903D0012901D141F292407047000054
:1018E000100500200348406800690068008900B2C4
:1018F00070470000940800200F4A10480021937898
:1019000023B1C17001714170817006E0137813B189
:10191000012B07D008E0C1700171C18201834183AE
:10192000818301E0417081705278002A03D1044A1A
:10193000926811710170704751110020D804002085
:101940009408002070B5184D0121184C2A78002009
:1019500012B1012A02D002E0207000E02170EA7882
:101960004AB1012A05D0022A06D1A178042903D060
:101970000221A17000E0A0700B49AA784978012AE1
:1019800000D16170627891420CD009498A68107167
:10199000607828B1012805D1886A8047002801D0E5
:1019A0006878607070BD00005111002010050020A3
:1019B0009408002010B5FFF795FF002802DDFFF71F
:1019C00091FF02E0FFF78EFF40423C2801DA012040
:1019D00010BD002010BD000070B522482249DFED87
:1019E000230A0368B7EE000A5A680A60446862680E
:1019F0004A60826855688D60C5686868C86001F192
:101A00001000C5600360C0E9014210301968016030
:101A100021684160116881602968C160103004F05C
:101A200099FBF7EE000AB7EE000A114804F092FBAA
:101A30000F48F7EE000AB7EE000A303004F08AFBD8
:101A40000B48F7EE000AB7EE000A603004F082FBA4
:101A5000BDE870400648F7EE000AB7EE000A903085
:101A600004F078BB78080020B816002000000000C1
:101A700030070020214A224840F6B83192F89B30C6
:101A8000012B01D081827047B2F865209FED1D1AAD
:101A900000EE102A4FF4FA53F8EE400A9FED1A0AAE
:101AA00000EE810ABDEEC00A10EE102A8282427951
:101AB00002B18382B0F914209A4201DD838202E0F0
:101AC0008A4200DA8182B0F91410F7EE080A00EEBB
:101AD000101A9FED0E1AB8EEC00A60EE200A80EED2
:101AE000810A10EE101A80ED090AB1F17E5FCADD9D
:101AF000B7EE000A80ED090A7047000016160020B4
:101B0000D804002019846B420CC284420000FA45BC
:101B100005488078022806D2DFE800F0010300F0D3
:101B200005B8FFF73DBD7047100500202DE9F047CF
:101B3000DFF8C082B14E4FF001092DED028B002578
:101B4000D8F80800A8F56F744178AB48D0ED060AC4
:101B500090ED040A90ED031A30EEC00AFDEEC00AC3
:101B600090ED050A31EE400ABDEEC00A11B101291F
:101B70001FD021E1718A09B1012200E00022C1F3E6
:101B800040310A4203D0A581E581258214E110EE9F
:101B9000901AA18110EE101AE18190ED000ADFED9C
:101BA000980A20EE200ABDEEC00A10EE100A20822C
:101BB00002E110EE900A208110EE100A6081914837
:101BC000006890ED020AB8EEC00ADFED8F0A80EEE1
:101BD000201AB0EE000A61EE000A9FED8C0A20EE9A
:101BE000808A18EE100AFEF758FD41EC100B07F042
:101BF00037FC51EC100BFEF763FD08EE900A18EE6F
:101C0000100AFEF74AFD41EC100B07F08DFC51EC79
:101C1000100BFEF755FDB4F9081000EE100A00EEA7
:101C2000901AB4F90A00F8EEE00A20EEA81A00EEC5
:101C3000900AF8EEE00A00EEC01AFDEEC10A10EEBE
:101C4000902A00EE901AA281F8EEE00A60EE800A77
:101C500000EE100AB8EEC00A40EE280ABDEEE00A17
:101C600010EE100AE0816348A43800F013FCBDEECA
:101C7000C00A44F6206110EE100A00B220828842A9
:101C800002DC4942884200DA08462082D8F808700F
:101C9000B6EE000A3B796BB3B4F90C00B4F914103A
:101CA000884201DD084603E04A42904200DA1046CD
:101CB00000EE900AF8EEE00A60EE800AFDEEE00A1F
:101CC00010EE900AA081B4F90E00884201DD0846AA
:101CD00003E04A42904200DA104600EE900AF8EE25
:101CE000E00A20EE800ABDEEC00A10EE100AE08184
:101CF000218251E000F57A61B1F5FA5F4CD90028F4
:101D000001DD024600E04242B4F90C108A4205DAD5
:101D1000002801DD01460FE041420DE0002801DD11
:101D2000024600E0424252428A4205DD002801DDBF
:101D3000014600E04142494200EE901A0028F8EEC8
:101D4000E00A60EE800AFDEEE00A10EE901AA18132
:101D500001DD024600E04242B4F90E108A4202DA86
:101D600000280EDC0AE0002801DD024600E04242C5
:101D700052428A4204DD002800DC4042404200E03A
:101D8000084600EE900AF8EEE00A20EE800ABDEE6A
:101D9000C00A10EE100AE081708A08B1012200E04A
:101DA0000022C0F340210A4201D0E27842B100B1E2
:101DB0000120084200D1E570708A70B101210DE068
:101DC000484684F803901BB1012BF5D13D71F3E730
:101DD0003871D8F808004571EEE70021C0F3001013
:101DE000014205D084F80590BDEC028BBDE8F08778
:101DF0006571F9E794080020981500207A0000200A
:101E000000003443A402002000004046DA0F49409D
:101E10002DE9F04100213E4800F05EFA02213C48E5
:101E200000F05AFA01213A4800F056FA03213848E6
:101E300000F052FA364C0421A4F10A0594ED0A0A86
:101E4000BDEEC00A10EE100A288094ED2B0ABDEEFC
:101E5000C00A10EE100A688094ED4C0ABDEEC00A6C
:101E600010EE100AA88094ED6D0ABDEEC00A10EEC7
:101E7000100AE880274890F8702028460AF0BCFB3A
:101E8000B5F90000254B00EE100A2146B8EEC00A55
:101E900084ED200AB5F9020000EE100AB8EEC00A7F
:101EA00084ED410AB5F9040000EE100AB8EEC00A4C
:101EB00084ED620AB5F90600174D00EE100A002005
:101EC0000646B8EEC00AA5F1100284ED830A00BFF1
:101ED00055F82040247E54B152F82040247B23F84A
:101EE0001460401CC0B20428F2D3BDE8F08100EBBE
:101EF000401401EB840452F8207094ED200A3F7BDB
:101F0000BDEEC00A10EE104A23F81740E9E70000C2
:101F10002005002016160020C8160020F41000200E
:101F20002DE9F0412DED028B9FEDB71AB74DA86852
:101F300041789FEDB70A28460127002640684FF4F4
:101F4000A578A5F56F7400297ED001297DD180691F
:101F50004FF4FA520068818811FB02F100EE901AEA
:101F6000F8EEE00AC0EE801AFDEEE10A10EE901ADB
:101F70002181C08810FB02F000EE900AF8EEE00A22
:101F8000C0EE801ABDEEE10A10EE100A6081A14891
:101F9000006890ED020A84ED081AB8EEC00ADFED81
:101FA0009E0A80EE201AB0EE000A61EE000A9FED54
:101FB0009B0A20EE808A18EE100AFEF76EFB41ECB9
:101FC000100B07F04DFA51EC100BFEF779FB08EE01
:101FD000900A18EE100AFEF760FB41EC100B07F0B8
:101FE000A3FA51EC100BFEF76BFB00EE100AB4F9EC
:101FF0000800B4F90A1000EE900AF8EEE00A20EEAC
:10200000A81A00EE901AF8EEE00A00EEC01AFDEEF3
:10201000C10A10EE902A00EE900AA281F8EEE00AC2
:1020200060EE800A00EE101AB8EEC00A40EE280AF0
:10203000BDEEE00A10EE100AE08104F5467000F0F3
:1020400029FABDEEC00A01E01AE04CE010EE100AD9
:1020500044F6206100B22082884202DC4942884274
:1020600000DA08462082A968B6EE000A0A79EAB3C7
:10207000B4F90C30B4F9142093423CDD10463EE034
:1020800080694FF4FA520068818811FB02F100EE7A
:10209000901AF8EEE00A80EE801AFDEEC10A10EE0A
:1020A000901AA181C18811FB02F100EE901AF8EE9E
:1020B000E00A80EE801AFDEEC10A10EE901AE1816E
:1020C000018811FB02F100EE901AF8EEE00A80EEB2
:1020D000801ABDEEC10A10EE101A2182B0F9140068
:1020E000404506DD6771BDEC028B00E029E0BDE8EC
:1020F000F0816671F7E75042834200DB184600EE3C
:10210000900AF8EEE00A60EE800AFDEEE00A10EEBA
:10211000900AA081B4F90E00904201DD104603E060
:102120005342984200DA184600EE900AF8EEE00AB0
:1021300020EE800ABDEEC00A10EE100AE081228275
:1021400053E041F27072024442F6E0639A424CD985
:10215000002801DD034600E04342B4F90C2093421D
:1021600005DA002801DD02460FE042420DE00028BA
:1021700001DD034600E043425B42934205DD002857
:1021800001DD024600E04242524200EE902A002861
:10219000F8EEE00A60EE800AFDEEE00A10EE902A0A
:1021A000A28101DD034600E04342B4F90E209342D0
:1021B00002DA00280EDC0AE0002801DD034600E018
:1021C00043425B42934204DD002800DC404240422F
:1021D00000E0104600EE900AF8EEE00A20EE800AD9
:1021E000BDEEC00A10EE100AE081686880690068E0
:1021F000B0F91400404501DD0F717AE710F5A57FB5
:10220000FBDA0E7175E70000000000009408002062
:1022100000002544A402002000004046DA0F494097
:102220002DE9F04129482A494FF000082DED028B95
:1022300006469FED258A042580ED208A80ED418A9F
:1022400080ED628A80ED838AA1F80080A1F8028087
:10225000A1F80480A1F806804FEA080404EB4410BA
:1022600006EB800707F140000AF0B0F938460AF0A3
:10227000ADF9641CE4B287ED208AAC42EED3154C74
:1022800020460AF0A3F9FFF71FFB00EE100AB8EE94
:10229000C00A84ED000AFFF717FB00EE100A45465E
:1022A000B8EEC00A84ED010A84ED208A84F88480A7
:1022B000FFF7FEFA04F1A40081680D718068457192
:1022C000BDEC028BBDE8F08100000000200500207D
:1022D000F4100020F007002010B501EB411200EBD4
:1022E000820401EB410094EC020A094901EB001061
:1022F00030EE600A84ED020A03F044FF84ED020A26
:1023000020460CF0E5FE94ED0A0A84ED200A10BD8B
:10231000300700203CB500203E4C00900190A2897F
:10232000E189208A53181D18ADF80050551A891AF2
:1023300005440144ADF80410C01AADF80600ADF82C
:102340000250684605F070F800EE100A608A94EDBD
:10235000091AF8EEC00A00EE100ABDF90000BDF936
:102360000420B8EE400A20EE011A80EE810A00EE49
:10237000900AF8EEE00A80EE801AFDEEC10A10EE37
:10238000900A00B2ADF80000BDF9021000EE901AFC
:10239000F8EEE00A80EE801AFDEEC10A10EE901A07
:1023A00000EE902A09B2F8EEE00AADF8021080EED5
:1023B000801AFDEEC10A10EE902A12B2ADF8042088
:1023C000BDF9063000EE903AF8EEE00A80EE801A91
:1023D000BDEEC10A10EE103A00EE100A04F14800FA
:1023E0001BB2B8EEC00AADF8063080ED000A00EE70
:1023F000101AB8EEC00A80ED210A00EE102AB8EEDD
:10240000C00A80ED420A00EE103AB8EEC00A80ED34
:10241000630A3CBDD8040020704700001B480168D7
:10242000B1F9021000EE101A1949B8EEC00A81ED98
:10243000010A4268B2F9022000EE102AB8EEC00A82
:1024400081ED220A8268B2F9022000EE102AB8EE6D
:10245000C00A81ED430AC068B0F9020000EE100A1C
:1024600001F55670B8EEC00A81ED640A0069006893
:1024700090ED020AA1F1480080ED0D0AB8EEC00A05
:1024800000F5467080ED010A70470000D816002064
:102490002005002010B504462DED068BDFED518A96
:1024A0009FED511A514890ED100AD0ED110A504895
:1024B00030EE600A84ED020A4078012834D14D489C
:1024C000D0ED0B2ADFED4C0A22EEA02ADFED4B0AFD
:1024D000F4EE001AF0EE603A42EE213A9FED482AFF
:1024E000BFEE003AB4EEE30AF1EE10FA06DD30EE8C
:1024F000420A84ED020A80ED0B3A15E0DFED413A25
:1025000062EEA32A52EEA10AB4EEE00AF1EE10FA4E
:1025100006D230EE020A80ED0B3A84ED020A03E0A7
:10252000B7EE000A80ED0B0A94ED028AB5EEC08A80
:10253000F1EE10FA02DDB0EE480A01E0B1EE480A11
:10254000B4EEC10AF1EE10FA28DD10EE100A2E49A1
:10255000884219DA30EE410A9FED2C9B10EE100AEA
:10256000FEF79BF89FED2BAB53EC1A2BFDF784FF86
:1025700053EC192BFDF7F2FF53EC1A2BFDF7D5FEA8
:10258000FEF79EF8206103E0B2EE000A84ED040A33
:10259000184838304178012903D005E0B1EE000A2F
:1025A000F4E7007901280DD0B5EEC08AF1EE10FAFB
:1025B00001DCB1EE488A18EE100A1849884201DAA7
:1025C000C4ED028A94ED020A154803F0DBFD84EDA8
:1025D000020A20460CF07CFD94ED0A0ABDEC068B45
:1025E00010BD0000000000000000F042040E0020BA
:1025F00051110020D8040020000040460000404552
:102600000000C045000040C600007A440000000001
:1026100000808B40000000000000104000002041BE
:10262000E81600202DE9FC412F492E480024C969F5
:102630000088098800EE101A6946F8EE400A00EE9C
:10264000100A4FF4A870CDED000AB8EE400A8DEDE7
:10265000010AFEF749FD4FF40075244A294601207E
:10266000FEF77AFF214A2946183A0020FEF774FF48
:1026700000F0CAF81D48203800F13002816B016378
:10268000C16B416340F251110020FEF765FF174A0C
:102690006D1E083A29460120FEF75EFF134A2946BF
:1026A000203A0020FEF758FF10490020A1F118023F
:1026B000A1F10803A1F12007A1F1100501F108061D
:1026C00027F8140022F8140025F8140023F8140049
:1026D00021F8140026F81400641CE4B2042CEFD393
:1026E000BDE8FC81DA080020A40200200C110020C3
:1026F0002DE9F04724490020044601F1080501F1C5
:10270000180601F1200721F8104025F8104026F89E
:10271000104027F81040401CC0B288460428F2D36D
:10272000194A40F2FF19103249460120FEF714FF02
:10273000154A4FF4007A183251460120FEF70CFF7B
:10274000114A4946083A0020FEF706FF0E4A514654
:102750000020FEF701FF0C4A002010324146A2F192
:10276000180300BF23F8104021F8104025F810404E
:1027700022F8104026F8104027F81040401CC0B244
:102780000428EFD3BDE8F087F41000202DE9F041D4
:102790001C4A0020014602F1080302F1100402F174
:1027A000180702F1200502F1280600BF22F81010D8
:1027B00023F8101024F8101027F8101025F8101026
:1027C00026F81010401CC0B20428EFD30D4A40F286
:1027D000FF14183221460120FEF7BEFE094A651C8F
:1027E000203229460120FEF7B7FE064A2146002086
:1027F000FEF7B2FE2946BDE8F041024A0832002049
:10280000FEF7AABEEC1000200E4801780E48417178
:102810000E490968C97B012900D00021C1700C490B
:102820008968CA784270097901700A49896809790A
:10283000817009490978017108490978817100217D
:10284000C1717047B01100202411002090040020B5
:10285000C80C002094080020D2080020DD040020CD
:102860000021014802F044B8CC7E002010B5124C83
:102870002068C1688847A06881688847E0688168E7
:102880008847206981688847606981688847A069AE
:1028900081688847E06981688847206A816888473D
:1028A000E06A81688847206B81688847606B81682F
:1028B000BDE8104008470000F8010020014802F080
:1028C0005FB80000C0800020014802F059B8000045
:1028D00060800020014802F053B800008081002091
:1028E000014802F04DB80000208100202DE9F04F92
:1028F00085680024099E802D18D0894DC563894DB7
:10290000456490F83450012D15D0012580F83450DD
:1029100090F83550012D10D0002180F83410022499
:10292000002180F834102046BDE8F08F4FF480710C
:1029300041650120F8E70220F6E7022580F83550CE
:102940000025456505682F6847F480272F600568D6
:102950002B6103685E608368402B03682AD099600E
:102960000168CA60714D704E704FDFF8BC81DFF8AE
:10297000B891DFF8B8A1DFF8B4B1EA14DFF8A8E144
:102980000168183630379302A9F148090AF1600A44
:102990000BF1180BAEF1300E4FF0006C41452DD904
:1029A000A94205D0494503D0514501D0B14205D1D6
:1029B000202220E09A600268D160D3E759451AD0FE
:1029C000714518D0594D7835A94214D0564D30353F
:1029D000A94210D0B9420BD0534A183A914207D0BD
:1029E000524A9032914203D04F4A4832914201D12B
:1029F0001A4600E062464C494C392EE0DFF82C8143
:102A000008F1A80841452AD9A94205D0494503D073
:102A1000514501D0B14201D120221CE059451AD0C4
:102A2000714518D0414D7835A94214D03E4D30350E
:102A3000A94210D0B9420BD03B4A183A914207D074
:102A40003A4A9032914203D0374A4832914201D1FA
:102A50001A4600E06246344950390A605AE0DFF80D
:102A6000CC8008F1480841452AD9A94205D04945FA
:102A700003D0514501D0B14201D120221CE059457B
:102A80001AD0714518D0294D7835A94214D0264D59
:102A90003035A94210D0B9420BD0234A183A91429E
:102AA00007D0224A9032914203D01F4A48329142C5
:102AB00001D11A4600E062461C491039CA6029E07B
:102AC000A94205D0494503D0514501D0B14201D1B9
:102AD00020221CE059451AD0714518D0134D783585
:102AE000A94214D0104D3035A94210D0B9420BD0B4
:102AF0000D4A183A914207D00C4A9032914203D0C5
:102B0000094A4832914201D11A4600E0624607491B
:102B100010398A6001680A6842F001020A60FFE623
:102B2000D1AE0008E9AE00085864024010600240CF
:102B300001681823CAB2103AB2FBF3F2054B6FF3E7
:102B40000901032A9B5CC36500D9091D81650846FC
:102B500070470000E820010810B5014600208B698D
:102B60008A6A4FF0C07453B1B3F5005F15D072B1EB
:102B7000012A0CD0022A0AD0032A09D104E01AB192
:102B8000012A06D0022A03D1C96AC90100D5012051
:102B900010BDC96AA142FAD010BD002AF7D0012A9F
:102BA000F2D0022AF3D0032AF3D010BD70B590F80A
:102BB00034500024012D0CD0012580F8345090F8B9
:102BC00035600025012E06D080F8345002242046BE
:102BD00070BD022070BD022680F83560456505682D
:102BE0002E6826F480262E6005686B608368402B73
:102BF000036808D099600168CA600068016841F004
:102C000001010160E3E79A600268D160F5E710B561
:102C100004F03AFCFDF7D0FEFFF722FE05F0FCFAC7
:102C200005F030FB05F05AFB05F076FBFEF73AFAAB
:102C3000FEF702FBBDE8104004F020BC01680A6802
:102C4000D20604D5C968C90601D50CF081BB70470E
:102C500070477047024A1060101D01607047000005
:102C6000340400402DE9F04F5C49488A10B14FF020
:102C7000010801E04FF00008C0F300308B4618EA6D
:102C8000000F9FED571ADFF85C919FED573ADFF880
:102C90005CA1DFED571A9FED572ADFED572A574CFD
:102CA000DFF85CC14FF00103A768ACF180009CED38
:102CB000120A544A544E856C00F584717B7141D0E0
:102CC000524F80ED020AD0ED043AD7ED000A60EED3
:102CD000E30AD1ED733A73EEA00AC0ED030AA468CB
:102CE000637110EE903A934202DD70EEC10A05E086
:102CF00010EE903AB34203D370EE810AC0ED030A9E
:102D000075B910EE103A4B4502DDB0EE430A05E00E
:102D100010EE103A534501DAB0EE610A81ED310A46
:102D2000D0ED030A10EE903A934202DDF0EE420A33
:102D300005E010EE902AB24201D9F0EE620AC1ED30
:102D4000730A41E0DCED100AC0ED030A80ED020ACF
:102D5000A468637110EE903A934202DD70EEC10AEE
:102D600005E010EE903AB34203D370EE810AC0ED55
:102D7000030A4DBBD0ED030A10EE903A934202DDF8
:102D8000F0EE420A05E010EE902AB24201D9F0EED0
:102D9000620A10EE102A4A4502DDB0EE430A05E051
:102DA00010EE102A524501DAB0EE610AC1ED730A45
:102DB000BBF812200AB1012300E00023C2F38022F5
:102DC000134201D181ED310A91ED730A80ED020ABF
:102DD00091ED310A80ED030ABDE8F08F7A00002002
:102DE0000000404600006145000061450020F944B4
:102DF0000020F9440000C0450000C0C5C80C0020F8
:102E00007C0D00200000C0450000C0C598150020C2
:102E100070B501EB411200EB820494ED100AD4ED81
:102E2000110A30EE600A84ED120A09B1032912D1A9
:102E300010EE100A1C4ADFED1D0A904202DD30EE52
:102E4000600A06E010EE100A10F1695F03D930EE57
:102E5000200A84ED120A164801EB410584ED1F0A91
:102E600000EB051003F08EF984ED120A04F1400026
:102E70000CF02EF994ED1A0A0D4884ED000AD4EDF9
:102E8000010AF03800EB051030EE600A84ED020A0A
:102E900003F078F984ED020A20460CF019F994ED5C
:102EA0000A0A84ED200A70BD0000C04500004046BB
:102EB0009C19002010B500F011F80748007810B1F7
:102EC000012803D004E000F0E7FB01E000F014FA71
:102ED000BDE8104000F08CBBFC0D002010B500F0E8
:102EE0001BF800F007F800F0EDFDBDE8104005F01C
:102EF00031BA0000064A07480021937813B91278C6
:102F0000002A03D1017041708170C17070470000C8
:102F100051110020FC0C00202DE9F0412F49012621
:102F20002DED028B00240A782D4812B1012A02D01F
:102F300002E0047000E006702A4A93685E71CB7864
:102F40005BB1012B07D0022B0AD18278042A07D06B
:102F50000222827004E0867002E0926854718470EC
:102F60008A781E49012A497800D1417042781E4D65
:102F7000914230D080469FED1D8A05F58477E2B1FD
:102F80001B4800688068002800DC4042322803DBD0
:102F9000E888B0F57A7F09D911480321083000F09C
:102FA00065FD87ED108A88F80140EC80E888401CB8
:102FB000E880BDEC028BBDE8F08197ED740A08480B
:102FC00087ED730A0021083000F050FD87ED108A6C
:102FD00088F80160E9E74170EC80EAE751110020D0
:102FE000FC0D0020B8100020FC0C002000000000A8
:102FF000A40200201648174990ED730AD0ED740A18
:1030000030EE600ADFED140A10EE100A884202DD8D
:1030100030EE600A06E010EE100A10F1695F01D987
:1030200030EE200AB5EEC00AF1EE10FA01DCB1EE86
:10303000400A0A48D0ED070AF8EE600AB4EEE00A4A
:10304000F1EE10FA01D20120704700207047000015
:10305000040E00200000C04500004046FC0C00208B
:1030600010B58748874BF1EE040A2DED028BB7EEC1
:10307000000A02685168196041684C685C608068A9
:1030800044689C6014331A60C3E9011013687D4AD8
:1030900028321360096851600068906002F11400E2
:1030A00003F058F87748F2EE040AB7EE000A6C30E5
:1030B00003F050F89FED748A7248B7EE000AF0EE04
:1030C000480ACC3003F046F8F3EE0E0AB7EE000AD9
:1030D0006E4803F03FF8DFED6E0A6C48B7EE000A69
:1030E000303003F037F86948F3EE040AB7EE000A0F
:1030F000903003F02FF8F3EE040AB7EE000A6548AB
:1031000003F028F86348F3EE040AB7EE000A303003
:1031100003F020F85F48F3EE0E0AB7EE000A3038ED
:1031200003F018F85B48F0EE480AB7EE000A60308A
:1031300003F010F85748F0EE480AB7EE000A903056
:1031400003F008F8DFED548A5248B7EE000AF0EEBB
:10315000680AC03002F0FEFF4E48F0EE680AB7EE93
:10316000000AF03002F0F6FFF2EE040AB7EE000AB1
:103170004A4802F0EFFF4948F0EE480AB7EE000A6D
:10318000303002F0E7FF45480521C03006F0C4FEAC
:103190000A21434806F0C0FE0121424806F0BCFE69
:1031A0000121414806F0B8FE0521404806F0B4FE72
:1031B0000A213F4806F0B0FE1E213E4806F0ACFE54
:1031C0000A213D4806F0A8FE03213C4806F0A4FE73
:1031D0003248F3EE0E0AB7EE000A603002F0BAFF92
:1031E0002E48DFED370AB7EE000A903002F0B2FF4A
:1031F0001E21344806F090FE5021334806F08CFE24
:103200005021324809F060F99621314803F0C8FD99
:103210009621304803F0C4FD03212F4803F0C0FD80
:10322000F2EE040AB7EE000A2C4802F093FF632185
:103230002B4806F071FE63212A4806F06DFE6321DB
:10324000294806F069FE6321284806F065FE6321DF
:10325000274806F061FE0A21264806F05DFE174861
:10326000B1EE040A283803F027FDBDEC028BB7EE5F
:10327000000A1248BDE81040143803F01DBD0000DC
:103280009810002070180020000000009C190020F9
:1032900000004843BC1A002000002042DC1B002034
:1032A000381E0020D41F0020702100200C23002095
:1032B000A824002044260020E0270020782E0020AB
:1032C0000000C8427C290020182B002084360020F2
:1032D000583D00200C4D0020C05C0020483B0020E1
:1032E0004C330020E834002014300020B03100209E
:1032F000B42C0020AC39002005488078022806D282
:10330000DFE800F0010300F005B8FFF7ABBC704741
:10331000FC0D00202DE9F047A448DFF89482012637
:103320002DED048B8068A349A34A4671D8F80800A4
:103330004378DFEDA20ADFF888C29FEDA21AA8F554
:103340006F7494ED050ADFEDA09A9FEDA08A9FEDC2
:10335000A09A04F58475DFED9F8A9F48DFF87C9280
:103360009F4F13B1012B4AD0E2E0408A08B10123FC
:1033700000E00023C0F34030034218D091ED060A6C
:10338000D1ED041A30EE610ADFED961A20EE210A23
:1033900084ED030A91ED030AD1ED051A30EE610ABE
:1033A000DFED911A20EE210A84ED020A07E0D1ED4B
:1033B000011A21EEC00A84ED020AC4ED039A95EDCC
:1033C000100AD4ED031A30EE210A85ED100A95EDAE
:1033D000310AD4ED021A30EE610A10EE100A84EDC3
:1033E000020A904202DDB0EE600A05E010EE100A1B
:1033F000604501DAB0EE410A85ED310A98E0D1ED81
:10340000011A61EEC01AC4ED021A91ED000A94EDA2
:10341000042A20EE420A95ED732A32EE000A10EEDD
:10342000103A84ED030A4B4502DD30EE480A05E010
:1034300010EE103ABB4203D930EE080A84ED030ABD
:1034400010EE103A4B4502DDB0EE680A05E010EED2
:10345000103ABB4201D9B0EE490A85ED730A418AA0
:1034600009B1012300E000238246C1F3802003421A
:1034700012D195ED310A30EE610A10EE100A904239
:1034800002DDB0EE600A05E010EE100A604501DAD8
:10349000B0EE410A85ED310AD8F82C00804798B388
:1034A000BAF8120008B1012300E00023C0F3801233
:1034B00013429FED4E0A4FF0000101D0637813B123
:1034C00048B1012308E0D5ED730A70EE800AC4ED1F
:1034D000030A667003E00023134200D1617008B153
:1034E000012300E00023C0F3C012134201D0A378EF
:1034F00013B150B1012309E0D5ED730A30EEC00AD3
:1035000084ED030AA67004E012E00023134200D108
:10351000A17008B1012300E00023C0F38032134200
:1035200001D0E3786BB100B10120104200D1E1700D
:1035300094ED030A10EE101A494515DD30EE480AE5
:1035400018E008B1012100E00021C0F3800095EDF2
:10355000730A014202D030EE280A01E030EE680A18
:1035600084ED030AE670E3E710EE101AB94203D9BE
:1035700030EE080A84ED030AB0EE408A18EE101A05
:10358000494502DDB0EE688A05E018EE100AB8423F
:1035900001D9B0EE498A85ED738AC4ED039AC4ED72
:1035A000029ABDEC048BBDE8F0870000C80C002037
:1035B000B81000209815002000006145000061450A
:1035C0000020F9440020F9440000000000004046BB
:1035D0000000C0C50000C0457A0000200000C045C2
:1035E0000000C0C517B7D1B817B7D13800004045A3
:1035F0000D4810B58068407810B1012802D005E070
:10360000002100E003210948FFF702FC01210748DF
:10361000FFF7FEFB04210548FFF7FAFBBDE8104069
:10362000024800F005B80000B8100020040E002089
:10363000154B10B5196800220C7E14493CB1CA80A4
:1036400059680B7E1249A3B18A80CA8010BD114C03
:10365000A468647854B1012CF2D190ED830A00BFC4
:10366000BDEEC00A10EE104ACC80E9E790ED200ACA
:10367000F6E790ED410ABDEEC00A10EE100A888010
:1036800010EE100AC88010BD84180020EC10002035
:1036900004110020B810002030B54249424A0120F0
:1036A00089684871906845789FED400A404BDFED8E
:1036B000411A414C9FED411ADFED410AA2F56F71AD
:1036C00001F5847015B1012D2BD025E05268926967
:1036D0001268B2F90220C1ED030A02EE102AB8EE18
:1036E000C22A22EE000A90ED102A32EE202A80ED46
:1036F000102A90ED312A32EE400A81ED020A4BE0A9
:10370000B0EE610A06E000BF10EE102AA24201DA14
:10371000B0EE410A80ED310AC1ED030AC1ED020AA3
:1037200030BD284DED78012DF6D05268DFED262A08
:1037300092691568B5F9025002EE105A234DB8EEA1
:10374000C22A22EE002A81ED022A1268B2F9002074
:1037500000EE102AB8EEC00A20EE220AD0ED732A3D
:1037600032EE800ADFED1A2A10EE102A81ED030AEC
:10377000AA4202DD30EE620A06E010EE102A12F1D3
:10378000695F03D930EE220A81ED030A80ED730AE6
:1037900090ED310A30EE420A10EE102A9A42B3DD63
:1037A000AEE70000C80C0020B810002096438B3C08
:1037B00000006145000061450020F9440020F94403
:1037C000000000005111002096430BBD0000C045D1
:1037D000000040462DE9F05F74494FF0000A2DEDDE
:1037E000048B896881F801A09FED710A714C84ED0A
:1037F0001E0A9FED719ADFF8C4B184ED3F9A012152
:10380000584601F0D8FA00F05DF9DFED6D8AC4ED9D
:10381000318A9FED6C8A6C4D84ED108AA4F5847614
:1038200028684FF0010890ED020AB8EEC00A84ED56
:10383000110A307990BB84ED119A0221584601F0AB
:10384000B5FA58BB2968088800EE100AF8EE400A5D
:103850009FED5E0A70EEC00AF5EEC00AF1EE10FAB6
:1038600000EE900AF8EE600A02DD70EEC00A01E098
:1038700070EE600A00EE100AB8EE401A9FED540A8E
:1038800031EE401AB5EEC01AF1EE10FA01EE100A50
:10389000B8EE411A03DD31EE400A02E030E030EECE
:1038A000410A10EE902A4FF08B439FED4A1A9A423C
:1038B00001DD70EEC10A10EE102A9A4201DD30EEF1
:1038C000410AB4EEE00AF1EE10FA04DD86F8048055
:1038D000A0F2924005E005D2A0F5A05086F8048041
:1038E0009238886029688868B0F5805F02DDA0F5AD
:1038F000005004E010F5805F02DA00F500508860A7
:10390000FFF776FE94ED101AD4ED110A31EE600A3D
:10391000B5EEC00AF1EE10FA01DC30EEC10A94ED0A
:10392000311AD4ED320A10EE100A31EE600AB5EE0B
:10393000C00AF1EE10FA01DC30EEC10A264A10EEA0
:10394000101A90422DDC91422BDC3079012828D1CD
:1039500084ED108AA146C4ED318A164E0525002457
:1039600004EB441006EB800707F1400008F02EFE40
:10397000384608F02BFE641CE4B287ED208AAC4286
:10398000EED300229FED150A012189ED1E0A89ED73
:103990003F0A584601F016FA114880F8018080F875
:1039A00000A0BDEC048BBDE8F09F0000B810002023
:1039B0000080BB45040E00200000FA4400040240D1
:1039C00000D03D4500000000A402002000409244C9
:1039D0000090A44500008045000048420000FA45E0
:1039E0004C1100202DE9F0411C481D494FF0000802
:1039F0002DED028B06469FED188A052580ED628A23
:103A000080ED418A80ED208A80ED838AA1F80680CE
:103A100014494446A1F80480A1F8068004EB441040
:103A200006EB800707F1400008F0D0FD384608F0AB
:103A3000CDFD87ED208A97ED110A641CE4B287ED75
:103A4000100AAC42EAD3084981F80480BDEC028B2D
:103A5000BDE8F041FFF742BA00000000040E00206C
:103A6000EC10002004110020FC0C002010B501EB2C
:103A7000411100EB810404F1400008F0A7FD20464D
:103A800008F0A4FD9FED040A84ED200A94ED110ACC
:103A900084ED100A10BD00000000000010B5FFF713
:103AA0001DFA0748007810B1012803D004E0FFF7A1
:103AB000F3FD01E0FFF7D6F8BDE81040FFF798BD31
:103AC000FC0D002070B5CB4884222DED0A8B406997
:103AD000C9490468C948FCF704FCC749C74884229F
:103AE00084318430FCF7FDFB8422C549C548FCF7CE
:103AF000F8FBC4481C22C4498430FCF7F2FBC249DD
:103B0000C0481C221C31A030FCF7EBFBBE49BD486D
:103B10001C225431BC30FCF7E4FB94ED010A9FED0C
:103B2000BB8A60EE080ADFEDBA8A80EEA80A10EEC2
:103B3000100AFCF7B2FD41EC100B05F091FCB0EE61
:103B4000409A94ED020AF0EE609A60EE080A80EE68
:103B5000A80A10EE100AFCF7A0FD41EC100B05F0CE
:103B6000E3FCB0EE40AAF0EE60AAB4F91000FCF756
:103B700064FD53EC1A2BFCF77FFC53EC192BFCF77C
:103B80007BFC94ED010A41EC1B0B60EE080A80EE11
:103B9000A80A10EE100AFCF780FD41EC100B05F0AE
:103BA000C3FCB0EE409AF0EE609AB4F90E00FCF758
:103BB00044FD53EC192BFCF75FFC94ED020A41EC39
:103BC0001A0B60EE080A80EEA80A10EE100AFCF745
:103BD00064FD41EC100B05F043FCB0EE409A94ED0F
:103BE000010AF0EE609A60EE080A80EEA80A10EE74
:103BF000100AFCF752FD41EC100B05F031FCB0EE61
:103C000040CAF0EE60CAB4F90C00FCF716FD53ECA4
:103C10001C2BFCF731FC53EC192BFCF72DFC53EC5F
:103C20001A2BFCF782FB53EC1B2BFCF77EFBFCF7FB
:103C300015FD784DA881E0894042288294ED010A63
:103C400060EE080A80EEA80A10EE100AFCF725FDC7
:103C500041EC100B05F068FCB0EE409AF0EE609A73
:103C6000B4F90C00FCF7E9FC53EC192BFCF704FC4D
:103C700094ED010A41EC190B60EE080A80EEA80AE7
:103C800010EE100AFCF709FD41EC100B05F0E8FB03
:103C9000B0EE408AF0EE608AB4F91000FCF7CDFC7B
:103CA00053EC182BFCF7E8FB53EC192BFCF73DFB0E
:103CB000FCF7D4FCE8814F4894ED000A20304168BD
:103CC000B1EE400AC96981ED000A416894ED020A2B
:103CD000C969B1EE400A81ED020A416894ED010A1A
:103CE000C969B1EE400A81ED010AD4ED000A9FEDE9
:103CF0004A1A80EE810ADFED491A3F4960EE210A37
:103D0000C1ED740A426850690068B0F90C00404285
:103D100000EE100AA1F58470B8EEC00A81ED640AC5
:103D200090ED180A30EEC00AB5EEC00AF1EE10FAB6
:103D300002DDB0EE401A01E0B1EE401A11EE103A89
:103D4000374DAB4250DDB5EEC00AF1EE10FA04DBA0
:103D50009FED341A30EE010A01E030EE210A90EDB9
:103D6000061A30EE010A00BF80ED060AC0ED180AFF
:103D70002548DFED2D0A036893ED020AB8EEC00A6C
:103D800081ED110A53691B68B3F90C305B4200EEF8
:103D9000103AB8EEC00A81ED010AC069008800EE51
:103DA000100AB8EE400A81ED320A50690068B0F995
:103DB0001000404200EE100AB8EEC00A81ED220A5F
:103DC00094ED010A20EE200A81ED950A5069006801
:103DD000B0F91000404200EE100AB8EEC00A81EDC2
:103DE000850ABDEC0A8B70BD90ED061A31EE000A13
:103DF000BAE7000098100020040E0020783B002055
:103E0000900F0020803C0020A4020020DA0F4940DF
:103E1000000034435C1800200000B443000040461A
:103E20000000C045000040C6630BB6C110B558B1D4
:103E3000084C491E0BD310F8013B5340DBB234F859
:103E4000133083EA1222F4E74FF6FF7010BD1046DC
:103E500010BD0000401E010810B5064C04E000BF74
:103E600010F8013B5340E25C491E89B2F8D210467B
:103E700010BD0000401D010878B50024009490F8A2
:103E80003C20012A19D0012280F83C200A6807232F
:103E90000568092A13D9EE680A3A02EB42029340F8
:103EA0009E43EE600B788A680A3B03EB43039A401B
:103EB0000368DD682A43DA6010E0022078BD2E69CD
:103EC00002EB420293409E432E610B788A6803EB1B
:103ED00043039A4003681D692A431A614A681F23F5
:103EE000072A13D205686E6B521E02EB82029340C2
:103EF0009E436E630B790A885B1E92B203EB8303C9
:103F00009A4003685D6B2A435A6327E005680D2ACF
:103F100012D22E6BD21F02EB820293409E432E637D
:103F20000B790A88DB1F92B203EB83039A40036884
:103F30001D6B2A431A6311E0EE6A0D3A02EB82020E
:103F400093409E43EE620B790A880D3B92B203EBDD
:103F500083039A400368DD6A2A43DA62164B0568D8
:103F6000144A9D4206D10D68122D03D1556845F4BF
:103F70008005556005689D4218D10B68102B01D053
:103F8000112B13D1536843F40003536009681029BF
:103F90000CD10A490A4A0968B1FBF2F101EB81012F
:103FA000490000E0491E00910029FBD180F83C4007
:103FB000002078BD002301400020014010120020A5
:103FC00040420F0070B504004FF0000503D0206C94
:103FD000002610B107E0012070BD204600F01CF85B
:103FE000666484F83C60206CC00610D4206C20F419
:103FF000885040F0020020642046FCF7DFFC666435
:10400000206C20F0020040F00100206400E0012557
:1040100084F83C60284670BD10B586B00446142173
:104020006846FCF777F91149206888421CD110488E
:104030000021026842F480720260006800F480701F
:1040400005900B481438026842F0040202600068D0
:1040500000F004000590012000900320CDE901014B
:104060006946044800F0C6FD06B010BD00200140BE
:10407000443802400008024090F82020012A07D06E
:10408000022A05D0416A41F4802141620120704733
:10409000006842690A43426100207047F0B590F819
:1040A00020500468A468012D05D0022D03D0416A78
:1040B00041F4802153E014F0406F01D1E5004BD56D
:1040C000C4F30164022C03D9416A41F4000146E0C3
:1040D0000125A5401D608D684FF4C0739DB1CE6869
:1040E00035434E6845EAC605066803EB0417F551EB
:1040F0004FF4C275076805EB04150E697E51097D02
:10410000012905D009E00E88CD6845EA4655EBE760
:1041100001684E5946F480764E511179D2F8055017
:104120004FF4C67641EA0525016806EB04168D5169
:104130001178D2F801204FF4C47541EA02210268D7
:1041400005EB04155151006803EB0411425842F08D
:10415000010242500020F0BD416A41F40011416269
:104160000120F0BD10B590F82020012A07D0022AC6
:1041700005D0416A41F480214162012010BD3B48D5
:10418000D0F8002242F00102C0F80022D0F800224C
:1041900022F47C52C0F80022D0F800224B6A42EA96
:1041A0000322C0F800220A7D02F01F0301229A4078
:1041B000D0F81C329343C0F81C32CB69B3B9D0F8A5
:1041C0000C329343C0F80C328C894B6864F31F4364
:1041D0004C6900EBC404C4F840320C890B6864F3EA
:1041E0001F434C6900EBC404C4F84432CB69012B73
:1041F00016D1D0F80C321343C0F80C320C884B683F
:1042000064F31F434C6900EBC404C4F840320C89CA
:10421000CB6864F31F434C6900EBC404C4F8443218
:104220008B69002BD0F804320ED01343C0F804324F
:104230000B69002BD0F8143208D01343C0F81432A5
:10424000096A012904D008E09343EFE79343F5E7B7
:10425000D0F81C121143C0F81C12D0F8001221F043
:104260000101C0F80012002010BD000000640040F1
:10427000704730B590F82040012C05D0022C03D0B7
:10428000416A41F480215DE00468002955D0246929
:10429000A40754D04FF4D874056804EB01142D59C9
:1042A00015F00405956005682D594ED0ED08556050
:1042B00005682C5904F00204D4604FF4DA740568E0
:1042C00004EB01142D5905F00F05156105682D59F2
:1042D000C5F30725956105682C59240C54614FF4EA
:1042E000DC72046802EB0112A4581C700468A45824
:1042F000240A5C700468A458240C9C700468A258BA
:10430000120EDA704FF4DE72046802EB0112A45848
:104310001C710468A458240A5C710468A458240C15
:104320009C710468A258120EDA71006881B10169AB
:1043300041F020010161002030BDE468A8E7416A36
:1043400041F400114162012030BD6D0D1560AFE7F1
:10435000C16841F02001C160EDE70246002092F8FB
:104360002010012901D002290CD111688A6852015C
:1043700000D501208A68120100D5401C8968C90057
:1043800000D5401C70472DE9F05F05460068002409
:104390004669D0F804908768D0F80CB0D0F810A027
:1043A000D0F81880F10748D0F90714D001218160B6
:1043B000B80703D5284600F030FA0CE0780702D59C
:1043C0004FF4006407E0380702D54FF4805402E050
:1043D000284600F021FAF80516D529684FF48070B8
:1043E0008860B80503D5284600F019FA0CE0780576
:1043F00002D544F4005407E0380502D544F4804463
:1044000002E0284600F00AFAF80316D529684FF4AE
:1044100080308860B80303D5284600F002FA0CE02B
:10442000780302D544F4004407E0380302D544F48D
:10443000803402E0284600F0F3F9300707D55FEA40
:10444000CB6004D52968102044F40074C86070075C
:104450004FF0080707D55FEA0B7004D52868C760DE
:10446000284600F099F9B00706D52868C06880078B
:1044700002D0284600F092F9700607D55FEACA60BC
:1044800004D52968102044F480640861B00607D57B
:104490005FEA0A7004D528680761284600F08CF9A5
:1044A000F00606D528680069800702D0284600F08B
:1044B00084F9B00308D55FEAC96005D529681020E2
:1044C0004860284600F07AF9F00307D55FEA0970E2
:1044D00004D528684760284600F0A4F9300446D582
:1044E0005FEA497040D5F00504D55FEAC87001D095
:1044F00044F00104B00504D55FEA887001D544F0AA
:104500000204700504D55FEA487001D544F0040444
:10451000300529D518F0700F26D008F0700040281B
:1045200015D006DC102809D020280AD0302816D152
:104530000AE050280ED0602811D10EE044F00804A3
:104540000DE044F010040AE044F0200407E044F0D9
:10455000400404E044F0800401E044F480742868DE
:10456000816921F070018161296804204860002C74
:1045700005D0686A204368622846FFF779FEBDE8E7
:10458000F09F70B5040003D094F8200010B104E04F
:10459000012070BD204600F081F82068016821F0FC
:1045A0000201016000F014FC0546052604E000F05D
:1045B0000FFC401B0A2811D8206840688007F6D4F9
:1045C0002068016841F00101016000F001FC05462E
:1045D0000BE000F0FDFB401B0A2806D9606A40F49E
:1045E0000030606284F82060D2E720684068C0072D
:1045F000EFD0207E0128206801683DD021F08001A5
:104600000160607E01282068016838D021F04001F7
:104610000160A07E01282068016833D021F02001CC
:104620000160E07E0128206801682ED041F0100171
:104630000160207F01282068016829D021F008014D
:104640000160607F01282068016824D021F0040106
:104650000160D4E902010843D4E90412114308437C
:104660006168491E08432168C8610020606201201A
:1046700084F82000002070BD41F08001C0E741F0C7
:104680004001C5E741F02001CAE721F01001CFE762
:1046900041F00801D4E741F00401D9E7F0B587B053
:1046A000044614216846FBF735FE364B3648DFF8E2
:1046B000D0E01968D4F800C0334A03250226092740
:1046C00010300024491CF44522D11960012907D17A
:1046D000016841F000710160006800F00070059011
:1046E000106840F0080010601068CDE9005600F036
:1046F0000800CDE9047069462448CDE9024500F080
:1047000079FA00220521142000F0EEFB142032E09B
:10471000DFF87CE0F44530D1D0F800C04CF0806C7C
:10472000C0F800C0D0F800C001290CF0806CCDF8B2
:1047300014C0196007D1016841F000710160006880
:1047400000F000700590106840F0020010601068E2
:1047500002AB00F0020005906020CDE9000683E87E
:10476000B00069460B4800F045FA002205214020C0
:1047700000F0BAFB402000F0A9FB07B0F0BD00003C
:10478000006400400012002030380240000C02405B
:10479000006800400004024070470000044A0168BD
:1047A000914202D0034A914201D1FCF761BE7047A9
:1047B0000064004000680040704770477047000088
:1047C00070B5044690F82000012804D0606A40F4D7
:1047D0000020606218E0022084F820002068016850
:1047E00021F00101016000F0F3FA05460EE000BF80
:1047F00000F0EEFA401B0A2808D9606A40F4003045
:104800006062052084F82000012070BD20684068A7
:10481000C007EDD1606270BD704770477047704748
:1048200070477047704770B54379012B1AD0012645
:1048300046710223037105682C6840F6FE739340AD
:104840009C43D1E900310B43934023432B60016823
:104850000B68C0249440A3430B6006710021417192
:10486000084670BD022070BD70B5040003D02079E9
:10487000002510B105E0012070BD6571204600F0F3
:1048800007F802202071256101202071002070BDF1
:1048900010B586B0044614216846FBF73BFD11496C
:1048A000206888421CD110480021026842F0005262
:1048B0000260006800F0005005900B481038026854
:1048C00042F001020260006800F001000590102033
:1048D00000900320CDE901016946044800F08AF9FF
:1048E00006B010BD00740040403802400000024095
:1048F00030B54279012A16D0012242710223037198
:1049000003681D6802FA01F425431D60002901684F
:104910000B680AD00C6803F4802304F46014B3F528
:10492000802F0FD015E0022030BD0C6803F0040387
:1049300004F03804042B0CD1382C0AD14B6843F016
:10494000010305E0B4F5601F03D14B6843F0020397
:104950004B60027100214171084630BD90F835105E
:10496000022903D08021416501207047052180F88C
:1049700035100068016821F00101016000207047D6
:104980002DE9F84304464FF00009CDF80090634844
:104990004FF41651A56D0068B0FBF1F72E6894F83E
:1049A0005C10082000FA01F131420FD021680A683A
:1049B00052070BD50A6822F004020A6094F85C10D2
:1049C0008840A860606D40F00100606594F85C105C
:1049D0004FF0010808FA01F0304208D02168496917
:1049E000090604D5A860606D40F00200606594F887
:1049F0005C1004208840304208D02168096889078B
:104A000004D5A860606D40F00400606594F85C1007
:104A100010208840304218D021680968090714D551
:104A2000A86020680168490304D50068000308D520
:104A3000A16C07E00168C90503D4016821F00801F1
:104A40000160216C09B12046884794F85C10202051
:104A50008840304231D021680968C9062DD5A86048
:104A600094F8350005282068016806D0490347D529
:104A7000006800031DD4616C1CE021F01601016088
:104A80002068416921F080014161206C08B9A06C67
:104A900020B12068016821F00801016094F85C10E1
:104AA0003F208840A86084F8349084F83580216DD8
:104AB0001FE0E16B09B120468847606D00282BD0CC
:104AC000606DC00714D0052084F8350020680168A7
:104AD00021F0010101600098401C0090B84203D809
:104AE00020680068C007F6D184F8349084F83580D7
:104AF000E16C002910D001B02046BDE8F043084722
:104B00000168C905D5D4016821F01001016084F85D
:104B1000349084F83580CCE7BDE8F883101200208B
:104B20002DE9F041044600F053F906465CB100253A
:104B300084F83450022084F835002068016821F0A0
:104B4000010101600DE00120BDE8F08100F040F9B5
:104B5000801B052805D920206065032084F83500D6
:104B6000F2E720680068C007F0D122681168204889
:104B70000140D4E901031843D4E903363343184311
:104B800063691843A3691843E3691843236A184308
:104B90000843616A042903D1D4E90B13194308437C
:104BA000106020684069666A20F0070130460E43B5
:104BB000012704280CD1A06A0643E06A40B12046D0
:104BC000FDF7CAFF20B14020606584F83570BAE770
:104BD000206846612046FDF7ABFF94F85C203F213A
:104BE00091408160656584F835700020ACE7000075
:104BF0003F8010F02DE9F84F00224FF00108032507
:104C00004FF00F0E0B6808FA02F42340A3426ED156
:104C10004E68012E05D0022E03D0112E01D0122E87
:104C200012D186684FEA420C05FA0CF7BE43CF68F2
:104C300007FA0CF7374387604668A6430C79C4F33C
:104C40000014944034434460C668570005FA07FCDA
:104C50008C6826EA0C06BC403443C4604C68022CC5
:104C600001D0122C13D1D40800EB8404A346D4F84D
:104C7000209054074FEAD46A0EFA0AF629EA060988
:104C80000E6906FA0AF646EA0906CBF820600668BD
:104C90000C7926EA0C0604F00304BC40344304609B
:104CA0004C68E40065D5364C266846F4804626609C
:104CB000246822F0030604F480440094314C344408
:104CC000A446D4F808489607370F0EFA07F6B443FF
:104CD0002D4EB04201D1002624E02C4EB04201D12D
:104CE00001261FE02A4EB04202D102261AE040E01F
:104CF000284EB04201D1032614E0274EB04201D124
:104D000004260FE0254EB04201D105260AE0244ECC
:104D1000B04201D1062605E0224EB04201D107265D
:104D200000E00826BE402643CCF808681E4E3468D2
:104D30004F689C43FF0300D51C4334601A4C241D6C
:104D400026684F689E43BF0300D51E432660164E5B
:104D5000083634684F689C43FF0200D51C4334601A
:104D6000114E0C3634684F689C43BF0200D51C437B
:104D70003460521C102AFFF445AFBDE8F88F0000E4
:104D8000443802400030014000000240000402406C
:104D900000080240000C02400010024000140240D3
:104DA00000180240001C0240003C0140006908401D
:104DB00000D001207047426931EA020200D10904A3
:104DC000816170470AB1816170470904FBE7000007
:104DD0000148806870470000041200200248816882
:104DE0000278114481607047041200200B4810B50E
:104DF000016841F400710160016841F48061016063
:104E0000016841F480710160032000F08DF80020FA
:104E100000F006F800F03EF8002010BD003C024013
:104E200010B5014688B000221C2000F05DF81C205F
:104E300000F04CF814480024016841F001010160C1
:104E4000006805A900F001000690684600F018F916
:104E500000F036F90D494000B0FBF1F10C484FF07D
:104E60008042491E026040F2E732C0E90324C0E9F3
:104E7000011400F06FFB10B1012008B010BD044810
:104E800000F0A6FBF9E700004038024040420F0066
:104E9000E08100200C4882B0016841F4804101604B
:104EA000006800F4804000900748001F016841F04E
:104EB000805101600068002200F0805000900F21B6
:104EC000901E02B000F010B844380240002809DB00
:104ED00000F01F02012191404009800000F1E02014
:104EE000C0F8001170470000F0B40E4B1B680C4670
:104EF000C3F30223C3F10705042D00D90425191DAE
:104F0000072901D2002300E0DB1E012606FA05F185
:104F1000491E214099409E40761E16403143F0BC08
:104F200003F068BE0CED00E0064900F007020868D7
:104F30004FF6FF03184040EA0220034A104308607E
:104F4000704700000CED00E00000FA052DE9F04785
:104F50000E46050065D0DFF81481D8F80000F7B2DE
:104F600000F00F00B04207D288F80070D8F80000B7
:104F700000F00F00B04254D128683D4C810712D593
:104F8000400703D5206840F4E050206028780007EF
:104F900003D5206840F4604020602068A96820F0B4
:104FA000F000084320602878C0072DD03049686899
:104FB0000839012812D0022813D0032811D009681B
:104FC000890700292DDA216821F0030101432160BE
:104FD000FFF7FEFE814641F2883A0EE00968890338
:104FE000EFE709688901ECE7FFF7F2FEA0EB0901A2
:104FF000514502D90320BDE8F0872068696800F0B8
:105000000C00B0EB810FEFD1D8F80010404601F052
:105010000F01B14207D90770006800F00F00B042DD
:1050200001D00120E7E72878400705D52068E96826
:1050300020F4E050084320602878000706D5206857
:10504000296920F4604040EAC100206000F058F86F
:105050002168084AC1F30311515CC8400649086041
:1050600006480068FFF7DCFE0020C4E7003C024071
:1050700008380240F0200108101200200812002019
:105080000F2202600C4A136803F0030343601368A5
:1050900003F0F0038360136803F4E053C360126805
:1050A0004FF4E05303EAD20202610448006800F0C2
:1050B0000F0008607047000008380240003C0240C2
:1050C0000448054900680968044AC1F38221515C1B
:1050D000C840704710120020083802400021010823
:1050E0000448054900680968044AC1F34231515C2B
:1050F000C840704710120020083802400021010803
:10510000154810B5006810F00C02144813D014496B
:10511000042A0FD0082A0ED10F4C241F22682368BE
:1051200002F03F025B0207D52068C0F38810A0FBA5
:10513000010106E0084610BD2168C1F38811A1FBFA
:1051400000010023FBF79CF82168C1F30141491CD1
:105150004900B0FBF1F010BD083802400024F40013
:1051600040787D012DE9F84F04006ED02078DFF8FB
:105170003C93C007A9F104054AD009F10400016875
:10518000C1F38101012908D00068C0F38100022821
:105190000AD1D9F80000400206D52868800337D527
:1051A00060680028E1D033E06068B0F5803F10D03F
:1051B000B0F5A02F286810D020F48030286028682F
:1051C00020F4802028606068A8B1FFF701FE064641
:1051D0000DE0286840F48030F4E740F48020286037
:1051E000F7E700BFFFF7F4FD801B642873D8286839
:1051F0008003F7D50CE0FFF7EBFD064605E000BFA6
:10520000FFF7E6FD801B6428F0D828688003F7D4F8
:105210002078DFF89C8280074FF0000A3ED5A34833
:10522000001D016811F00C0F08D00068C0F3810068
:1052300002280BD1D9F80000400207D42868800763
:1052400016D5E068012800D112E02BE1E068B8B182
:105250000120C8F80000FFF7BBFD064605E000BFCF
:10526000FFF7B6FD801B0228C0D828688007F7D555
:105270002868216920F0F80040EAC10028600DE0AC
:10528000C8F800A0FFF7A4FD064604E0FFF7A0FD64
:10529000801B02281FD828688007F7D420780007D1
:1052A00022D5824E83486169703671B10121016057
:1052B000FFF78EFD074604E0FFF78AFDC01B0228BA
:1052C00009D830688007F7D50EE0C0F800A0FFF7D6
:1052D0007FFD074605E082E0FFF77AFDC01B02284C
:1052E0007DD830688007F7D42078400768D5DFF88C
:1052F000BCB100270BF13C0BDBF80000C0000BD465
:10530000DBF8001041F08051CBF80010DBF8000012
:10531000012700F080500090674E3068C00510D41F
:10532000306840F480703060FFF752FD009005E077
:10533000FFF74EFD0099401A022850D83068C0058A
:10534000F6D55A4EA0686C3601280FD00528306873
:1053500010D020F001003060306820F00400306090
:10536000A068B8B1FFF734FD00900FE0306840F05E
:105370000100F4E740F004003060F7E7FFF728FD94
:105380000099411A41F28830814266D8306880071E
:10539000F4D50EE0FFF71CFD009007E0FFF718FDC5
:1053A0000099411A41F28830814256D8306880070E
:1053B000F4D42FB1DBF8001021F08051CBF80010AD
:1053C000A069C8B33949091D0968C1F381010229DF
:1053D0004AD00228504607D0C8F8600000E03CE000
:1053E000FFF7F6FC04463BE04746C8F86000FFF7CD
:1053F000EFFC064605E000BFFFF7EAFC801B022831
:105400002BD828688001F7D4D4E907010843A16AA2
:105410002A4A490802EB0141626A41EA82110843C3
:1054200094F82C1040EA0161C9F800100120386698
:10543000FFF7CEFC044606E036E000BFFFF7C8FCED
:10544000001B022809D828688001F7D52CE000BF8E
:10545000FFF7BEFC001B022802D90320BDE8F88F2D
:1054600028688001F4D41FE00128F7D0D9F80000A3
:10547000E26900F48001914214D1226A00F03F01F8
:1054800091420FD147F6C071626A0140914209D141
:10549000A26A00F44031914204D1E16A00F07060E8
:1054A000884201D00120D9E70020D7E70438024024
:1054B00000004742800E4742007000400000FFFF9E
:1054C0007047704770B590F83C20012A32D0012413
:1054D00080F83C40022280F83D2003685A689D68AD
:1054E00022F070060A6832435A60134B02689A42EF
:1054F00014D0B2F1804F11D0104B9A420ED0104B05
:105500009A420BD00F4B9A4208D00F4B9A4205D0CB
:105510000E4B9A4202D00E4B9A4204D1496825F0B4
:1055200080031943916080F83D40002180F83C10D1
:10553000084670BD022070BD00000140000400401C
:1055400000080040000C0040000401400040014001
:105550000018004010B5040003D094F83D0010B1CD
:1055600007E0012010BD002084F83C00204600F038
:105570000DF8022084F83D00211D206802F070FB28
:10558000012084F83D00002010BD000008B500682F
:105590000C49884208D10C48016841F001010160C2
:1055A000006800F001000BE00849884209D1064874
:1055B000001F016841F002010160006800F0020074
:1055C000009008BD00000140443802400004004043
:1055D0000168CA6842F00102CA600068816801F08F
:1055E0000701062903D0016841F001010160002094
:1055F000704770B5044690F83C00012817D001258B
:1056000084F83C50022084F83D002068826822F033
:10561000770222F47F4282600868502830D00DDC87
:1056200020284DD005DC98B310283BD148E002205B
:1056300070BD302844D0402834D139E0602828D0CB
:10564000702806D0B0F5805F2CD0B0F5005F29D16E
:105650000AE0CB68D1E90121206802F072FB2068E2
:10566000816841F0770109E0CB68D1E90121206828
:1056700002F067FB2068816841F48041816011E09D
:10568000CA684968206802F031FC5021206807E0B0
:1056900016E0CA684968206802F039FC6021206879
:1056A00002F059FB84F83D50002084F83C0070BDA6
:1056B000CA684968206802F019FC40212068EFE7B9
:1056C000226801461046EBE7704770B50446006853
:1056D00001694FF00005C943890715D4C168C94362
:1056E000890711D4E91E01610120207720688069B3
:1056F0008007204602D0FFF7E7FF04E000F0C0F883
:10570000204600F042F9257720680169C94349071E
:1057100017D4C168C943490713D46FF0040101616C
:10572000022020772068806910F4407F204602D054
:10573000FFF7CAFF04E000F0A3F8204600F025F9C7
:10574000257720680169C943090716D4C168C94390
:10575000090712D46FF00801016104202077206846
:10576000C0698007204602D0FFF7AEFF04E000F0DA
:1057700087F8204600F009F9257720680169C943B8
:10578000C90617D4C168C943C90613D46FF0100104
:105790000161082020772068C06910F4407F20460E
:1057A00002D0FFF791FF04E000F06AF8204600F015
:1057B000ECF8257720680169C943C90708D1C16899
:1057C000C943C90704D1891E0161204600F000F9D0
:1057D00020680169C943090609D4C168C94309069B
:1057E00005D46FF0800101612046FFF769FE206853
:1057F0000169C943490609D4C168C943490605D4AA
:105800006FF040010161204600F0E9F8206801696D
:10581000C94389060BD4C168C943890607D46FF010
:10582000200101612046BDE87040FFF74ABE70BD0F
:1058300010B586B0044614216846FAF76BFD0D4991
:105840002068884214D10C480021026842F001020D
:105850000260006800F001000590C0200090022066
:10586000CDE90101CDE9031069460448FFF7C2F90B
:1058700006B010BD00040040303802400000024075
:10588000704770B5044690F83C000D4601280DD0D5
:10589000012684F83C60022084F83D0042B1042ACD
:1058A00018D0082A2AD00C2A4DD139E0022070BD28
:1058B000206802F059FA2068816941F0080181618D
:1058C0002068816921F004018161206881692A6969
:1058D000114311E0206802F077FA2068816941F4F1
:1058E000006181612068816921F4806181612068A3
:1058F00081692A6941EA0221816124E0206802F07D
:1059000099FA2068C16941F00801C1612068C16944
:1059100021F00401C1612068C1692A69114311E0C5
:10592000206802F0BBFA2068C16941F40061C161DE
:105930002068C16921F48061C1612068C1692A6958
:1059400041EA0221C16184F83D60002084F83C00F6
:1059500070BD10B5040003D094F83D0010B107E00D
:10596000012010BD002084F83C00204600F00CF817
:10597000022084F83D00211D206802F071F9012009
:1059800084F83D00002010BD7047704710B50446F4
:105990000068012202F0C8F90B492068884202D051
:1059A0000A49884203D1416C41F4004141642068B6
:1059B000816801F00701062903D0016841F0010167
:1059C0000160002010BD0000000001400004014003
:1059D0000068B0F1804F01D1FFF700BA70477047FF
:1059E0007047000070B5026804461068D1685369BA
:1059F00010F00F0F52D003F0010501F490762E4302
:105A00005FD0C20705D0CA0503D5E26B42F00102A0
:105A1000E263420705D5DA0703D0E26B42F00202E7
:105A2000E263820705D5DA0703D0E26B42F0040295
:105A3000E263020707D501F020022A4303D0E26B9C
:105A400042F00802E263E26B002A33D0800604D5FC
:105A5000880602D5204602F08FFA20684069E16B83
:105A6000C0F38010090700D428B3204602F076FA6C
:105A70002068416949061AD5416921F04001416118
:105A8000606BA0B11B490165606BFEF767FF0028E2
:105A900010D0606B016DBDE870400847830610D5DB
:105AA0008B060ED52046BDE8704002F065BA204650
:105AB000FFF796FF70BD2046FFF792FF0020E063DE
:105AC00070BD030606D50B0604D52046BDE8704020
:105AD00002F032BB4006F3D54806F1D5D168204626
