:020000040800F2
:10000000782F00209D01000861350008552D00085B
:1000100089330008C91100081B46000800000000D1
:10002000000000000000000000000000BB3B0008D2
:10003000D92500080000000059360008D13C00080E
:10004000B7010008B7010008B7010008B7010008B0
:10005000B7010008B7010008B7010008B7010008A0
:10006000B7010008B7010008B7010008A123000884
:10007000B7010008B7010008B7010008B701000880
:10008000E5230008B7010008B7010008B701000820
:10009000CD120008B7010008B7010008B701000839
:1000A000B7010008B7010008B7010008B701000850
:1000B000B7010008193E0008B7010008B7010008A1
:1000C000B7010008B7010008B7010008B701000830
:1000D000B7010008C1430008B7010008B7010008D4
:1000E000B7010008B7010008B7010008B701000810
:1000F000B7010008B7010008B7010008B701000800
:10010000B7010008B7010008B7010008B7010008EF
:10011000B70100084D430008B7010008B701000807
:10012000B7010008B7010008B7010008B7010008CF
:10013000B7010008B7010008B7010008B7010008BF
:10014000F5140008B7010008B7010008B70100085E
:10015000B7010008B7010008B7010008B70100089F
:10016000B7010008B7010008B7010008B70100088F
:10017000B7010008B7010008B7010008B70100087F
:10018000B7010008B7010008DFF80CD000F08EFAC4
:10019000004800472D5F0008782F00200648804760
:1001A00006480047FEE7FEE7FEE7FEE7FEE7FEE75C
:1001B000FEE7FEE7FEE7FEE7D93C000889010008FC
:1001C00040EA01039B0703D009E008C9121F08C0D9
:1001D000042AFAD203E011F8013B00F8013B521E59
:1001E000F9D27047D2B201E000F8012B491EFBD2D0
:1001F00070470022F6E710B513460A460446194632
:10020000FFF7F0FF204610BD421C10F8011B00292B
:10021000FBD1801A70472DE9FE4F81EA030404F0F8
:10022000004421F0004100944FF0000B23F0004304
:1002300050EA01045ED052EA03045BD0C3F30A54CF
:10024000C1F30A552C44A4F2F3340194A0FB0254E8
:10025000C1F3130141F48011C3F3130343F480137A
:1002600001FB024400FB034E840A970A44EA8154CE
:1002700047EA8357A4FB076802958D0A05FB0785AB
:100280004FEA932C04FB0C542705029D4FEA0658B5
:1002900047EA1637B5EB08056EEB070C870E920E92
:1002A00047EA811742EA8312A7FB0201B6EB0B0172
:1002B00064EB00042B0D43EA0C335E1844EB1C5036
:1002C000DA465146E7FB0201C5F313044FEA0B334C
:1002D00043EA14534FEA0432019C43EA0603A4F1B3
:1002E0000C040294009CCDE900B400F07BF803B04C
:1002F000BDE8F08F00200146F9E700F0004230F041
:1003000000400AD0C10D01F56071C0F3160042EA49
:100310000151C20840071143704700200146704751
:1003200001F0004330B421F0004150EA010206D050
:100330000A0DA2F56072C1F31301002A02DC30BC81
:1003400000207047440F44EAC104C100E01830BCEB
:1003500000EBC250AFF300800029A8BF7047401CDB
:10036000490008BF20F00100704710B4B0FA80FCCB
:1003700000FA0CF050EA010404BF10BC704749B108
:10038000CCF1200421FA04F411FA0CF118BF012178
:1003900021430843A3EB0C01CB1D4FEA00614FEA58
:1003A000102042BF002010BC704700EBC350104427
:1003B0000029A4BF10BC7047401C490008BF20F0B2
:1003C000010010BC704710B5141E73F1000408DA68
:1003D000401C41F1000192185B411A4301D120F009
:1003E000010010BD2DE9F04D92469B4611B1B1FAC6
:1003F00081F202E0B0FA80F22032904600F068F913
:1004000004460F4640EA0A0041EA0B0153465A46A9
:10041000084313D0114653EA010019D0C8F1400235
:10042000504600F064F905460E465046594642468D
:1004300000F04EF9084305D0012004E0204639467B
:10044000BDE8F08D0020054346EAE0762C433743B3
:100450000A986305E40AA0EB08000022FD0A44EABA
:1004600047540A3002D500200146E9E7010510197A
:100470006941DDE9084500196941BDE8F04DA2E791
:100480002DE9FE4F804681EA0300C00F0C46009024
:1004900021F0004123F00045B8EB0200A94105D24C
:1004A0004046214690461C460B46024623F000403B
:1004B000104347D0270DC7F30A00C3F30A51029037
:1004C000401A019040286BDAC3F3130040F4801BFC
:1004D0000098924620B10023D2EB030A63EB0B0B8A
:1004E00001985946C0F14002504600F0F1F8064626
:1004F0000D4650465946019A00F009F910EB0800E4
:100500006141002487EA115284EAE7731A4340D01C
:10051000009A62B3019A012A4FEA075215DC001BC8
:1005200061EB02014FF0004202EA0752CDE90042BE
:10053000001C41F5801132462B46FFF753FF03B0F4
:10054000BDE8F08F40462146F9E7001B61EB020150
:10055000001C41F5801300185B412018A2F500171C
:1005600047EB030140EAD570B6196D4111E06D0803
:100570004FEA360645EAC0754FEA0752001B61EBA9
:100580000201001C41F5801149084FEA30000019B2
:10059000514132462B4603B0BDE8F04FFFF713BF81
:1005A0000098012240000023D0EB020263EBE073CD
:1005B000009821464FEAE074B8EB000061EB0401BB
:1005C000E9E783F000435BE781F0004158E72DE95C
:1005D000F04D81EA030404F0004B21F0004514467D
:1005E0004FF0000A23F0004150EA050220D054EAFF
:1005F00001021DD0C5F30A570246C5F31303C1F328
:100600001300C1F30A5640F4801543F48013A7EB9E
:100610000608101BD64608F2FD3873EB050002D31E
:1006200008F1010801E092185B41B8F1000F03DA0C
:1006300000200146BDE8F08D00204FF480110646F1
:1006400084460EE0171B73EB050705D3121B63EB03
:10065000050306434CEA010C49084FEA30009218A2
:100660005B4150EA0107EDD152EA030012D082EA61
:10067000040083EA0501084305D0101BAB4106D2F4
:100680000122002306E000224FF0004302E06FF059
:10069000010253101AEB06004CEB085110EB0A0054
:1006A00041EB0B01BDE8F04DFFF78DBE064C074D49
:1006B00006E0E06840F0010394E807009847103432
:1006C000AC42F6D3FFF764FD98690008B8690008EA
:1006D000202A04DB203A00FA02F100207047914002
:1006E000C2F1200320FA03F3194390407047202AF7
:1006F00004DB203A21FA02F00021704721FA02F3CC
:10070000D040C2F120029140084319467047202A88
:1007100006DBCB17203A41FA02F043EAE07306E029
:1007200041FA02F3D040C2F1200291400843194639
:1007300070472DE9F04D00231A461B1A8A4103DB4E
:1007400000200146BDE8F08DC1F30A52C1F3130148
:1007500041F480154FF0000BD10702D100186D4114
:10076000521E0027044640F2FF11384601EB620A90
:100770003E468046024600204FF48011FFF7B7FF47
:10078000C2197141BB1846EB0100B4EB030C75EBC9
:10079000000C04D3E41A65EB000517460E46241935
:1007A00008F101006D4180463428E3DDF91946EB7C
:1007B0000600091BA84103D24FF0FF32134601E0A7
:1007C000002213461BEB070046EB0A51BDE8F04D33
:1007D000FFF7F9BD70B58C1810F8015B15F0070331
:1007E00001D110F8013B2A1106D110F8012B03E0CA
:1007F00010F8016B01F8016B5B1EF9D12B0705D4D2
:100800000023521E0DD401F8013BFAE710F8013B1A
:10081000CB1A921C03E013F8015B01F8015B521E36
:10082000F9D5A142D8D3002070BD000010B54621F3
:10083000034802F04DFD034901481838816210BD9C
:1008400064040020DD39000870B505460C4600261A
:100850000DB1022C00D870BDA11E064802882846A2
:1008600002F0BAF90646A01E2E54310A601E295421
:1008700000BFF0E70000002070B505460C460026DA
:100880000DB1022C00D870BD611EFF22284602F077
:10089000BDF90646601E2E5400BFF4E72DE9F04373
:1008A00087B004460D4616461F46DDE90E890C2228
:1008B00004A9104602F034FD9DF810009DF81110B7
:1008C00040EA012000B2ADF804009DF812009DF846
:1008D000131040EA012000B2ADF806009DF81400A4
:1008E0009DF8151040EA012000B2ADF808009DF80F
:1008F00016009DF8171040EA012000B2ADF80A007A
:100900009DF818009DF8191040EA012000B2ADF8DA
:100910000C009DF81A009DF81B1040EA012000B25F
:10092000ADF80E00BDF804003880BDF80600A8F848
:100930000000BDF80800A9F80000BDF80A002080FA
:10094000BDF80C002880BDF80E00308007B0BDE86F
:10095000F08300002DE9F05F2DED088B04460D4675
:1009600016461F46DDE914ABDDE91289B7F9000030
:1009700000EE100AB8EEC00AFE4880ED000AB8F991
:10098000000000EE100AB8EEC00AFB4880ED000A35
:10099000B9F90000032190FBF1F000B200EB400038
:1009A00000EE100AB8EEC00AF44880ED000ABAF969
:1009B000000000EE100AB8EEC00AF14880ED000A0F
:1009C000BBF9000000EE100AB8EEC00AED4880ED59
:1009D000000A1698B0F9000000EE100AB8EEC00A3E
:1009E000E94880ED000AE64890ED000AE548D0EDC0
:1009F000000A20EE200AE448D0ED000A20EE200A8A
:100A0000B5EEC00AF1EE10FA04D10020BDEC088B5F
:100A1000BDE8F09FDD48017B9FEDDD0AD548D0EDB4
:100A2000000AFDEEE00A10EE900A00B205F042FA6C
:100A3000D04880ED000AD548017B9FEDD50ACE480D
:100A4000D0ED000AFDEEE00A10EE900A00B205F0CB
:100A500031FAC94880ED000ACC48017B9FEDCC0AF1
:100A6000C648D0ED000AFDEEE00A10EE900A00B292
:100A700005F020FAC14880ED000ABE4890ED000A5A
:100A8000DFEDC40A20EE200A80ED000ABA4890ED9E
:100A9000000ADFEDC00A20EE200A80ED000AB74808
:100AA00090ED000ADFEDBB0A20EE200A80ED000A7F
:100AB000B648017BB0EE000AB148D0ED000AFDEE69
:100AC000E00A10EE900A00B205F012FAAC4880ED90
:100AD000000AAE48017BB0EE000AAA48D0ED000A39
:100AE000FDEEE00A10EE900A00B205F001FAA5480A
:100AF00080ED000AA548017BB0EE000AA248D0EDC7
:100B0000000AFDEEE00A10EE900A00B205F0F0F9DE
:100B10009D4880ED000A9A48D0ED000A60EEA00AD8
:100B2000984890ED001AD0ED001A41EE210A96483F
:100B300090ED001AD0ED001A41EE210AB0EE600AE5
:100B400005F09AF9944880ED000A8D4890ED000A6E
:100B50009148D0ED000A20EE200A894880ED000A75
:100B6000884890ED000A8C48D0ED000A20EE200A5B
:100B7000844880ED000A844890ED000A8648D0ED54
:100B8000000A20EE200A804880ED000A834890ED9C
:100B9000000A8348D0ED000A20EE200A8148D0EDFB
:100BA000000A814890ED001A00EEC10AF0EE000A3A
:100BB00020EE200A7D4880ED000A7A4890ED000A78
:100BC0007648D0ED000A20EE200A7748D0ED000AE2
:100BD000734890ED001A00EE810AF0EE000A20EE54
:100BE000200A734880ED000A6E4890ED000A20EE5E
:100BF000000A6A48D0ED000A90ED001A00EEC10A22
:100C00006948D0ED000A90ED001A00EEC10A644870
:100C1000D0ED000A90ED001A00EE810A654880EDE3
:100C2000000A584890ED000A6248D0ED000A20EE14
:100C3000200A5548D0ED000A5D4890ED001A00EEFC
:100C4000C10A5D4880ED000A4F4890ED000A574800
:100C5000D0ED000A20EE200A4948D0ED000A5548A0
:100C600090ED001A00EEC10A544880ED000A444895
:100C700090ED000A4E48D0ED000A20EE200A4148CF
:100C8000D0ED000A494890ED001A00EEC10A4C4828
:100C900080ED000A4B4890ED000A4748D0ED000A6D
:100CA000494890ED001A00EE810A464880ED000A9E
:100CB000464890ED000A4148D0ED000A424890EDC8
:100CC000001A00EE810A414880ED000A404890ED8C
:100CD000000A3B48D0ED000A3B4890ED001A00EEB8
:100CE000810A3B4880ED000A224890ED000A39480D
:100CF000D0ED000A304890ED001A00EE810A31482C
:100D0000D0ED000A30EE200A1A4880ED000A1A4899
:100D100090ED000A2F48D0ED000A284890ED001A07
:100D200000EE810A2948D0ED000A30EE200A124870
:100D300080ED000A114890ED000A2648D0ED000A27
:100D40001F4890ED001A00EE810A2148D0ED000AFC
:100D500030EE200A094880ED000A124890ED000AA2
:100D60001D4880ED000A0D4890ED000A1B4880EDFB
:100D7000000A35E0BC020020C0020020C4020020AE
:100D8000C8020020CC020020D0020020002B00204E
:100D90000000FA44728A8E3CA0020020D802002093
:100DA000E0020020D4020020DC020020A402002087
:100DB000A8020020AC020020B0020020B4020020F3
:100DC000B8020020E80200209C020020EC02002073
:100DD000F002002098020020F4020020F802002017
:100DE000EA4890ED000AEA4880ED000AE94890EDF3
:100DF000000AE94880ED000AE84890ED000AB1EEEB
:100E0000400AE748D0ED000A20EE200AE048D0ED85
:100E1000000AE44890ED001A00EEC10ADE48D0ED69
:100E2000000AE14890ED001A00EEC10ADF4890ED9B
:100E3000001ADF48D0ED000A40EE010ADD48C0ED9F
:100E4000000ADB4890ED000AD548D0ED000A20EEFC
:100E5000200ACF48D0ED000AD34890ED001A00EEEA
:100E6000810ACD48D0ED000ACE4890ED001A00EE80
:100E7000C10ACE4890ED001AC848D0ED000A40EEF5
:100E8000010ACD48C0ED000AC94890ED000AC548E6
:100E9000D0ED000A20EE200AC048D0ED000AC2487A
:100EA00090ED001A00EEC10ABB48D0ED000ABC4824
:100EB00090ED001A00EE810ABC4890ED001AB4488B
:100EC000D0ED000A40EE010AB048C0ED000AB84873
:100ED00090ED000AB448D0ED000A20EE200AAF4899
:100EE000D0ED000AAF4890ED001A00EE810AA84844
:100EF000D0ED000AAA4890ED001A00EEC10AAB48F6
:100F000090ED001AA448D0ED000A40EE010AA14875
:100F1000C0ED000AA748D0ED000A60EEA00AA6487E
:100F200090ED001AD0ED001A41EE210A974890ED9D
:100F3000001AD0ED001A41EE210A964890ED001AF1
:100F4000D0ED001A41EE210AB0EE600A04F094FFE1
:100F50009A4880ED000A974890ED000A9748D0ED36
:100F6000000A20EE200A934880ED000A924890ED96
:100F7000000A9248D0ED000A20EE200A8E4880ED4B
:100F8000000A824890ED000A8C48D0ED000A20EE5D
:100F9000200A7E4880ED000A7E4890ED000A8748CE
:100FA000D0ED000A20EE200A7A4880ED000A814840
:100FB00090ED000A20EE000A7F48D0ED000A90ED87
:100FC000001A00EEC10A7148D0ED000A90ED001A37
:100FD00000EEC10A6F48D0ED000A90ED001A00EE55
:100FE000810A10EE101A0846FFF787F941EC1A0B38
:100FF000664890ED000AF0EE000A20EE200A6548EF
:10100000D0ED000A20EE200A6A48D0ED000AB0EECA
:10101000001A60EE810A684890ED001A00EE810A1D
:1010200010EE101A0846FFF768F941EC1B0BB0EE02
:101030004A1AF0EE6A1AB0EE4B0AF0EE6B0A03F0B1
:1010400067FFB0EE409AF0EE609A9FED5D0B53ECB7
:10105000102B51EC190BFFF7DEF841EC180BFFF7E2
:101060005FF92860544890ED000AF0EE000A20EE87
:10107000200A4848D0ED000A20EE200A4D48D0ED65
:10108000000AB0EE001A60EE810A404890ED001AA6
:1010900000EEC10A10EE101A0846FFF72EF941ECD7
:1010A0001B0BB0EE4B0AF0EE6B0A03F015FCB0EE32
:1010B00040AAF0EE60AA51EC1A0B81F0004141EC1D
:1010C000190B9FED3F0B53EC102BFFF7A4F841ECED
:1010D000180BFFF725F92060364890ED000A20EE46
:1010E000000A3548D0ED000A90ED001A00EE810AA2
:1010F0002648D0ED000A90ED001A00EEC10A2548FE
:10110000D0ED000A90ED001A00EEC10A10EE101AA0
:101110000846FFF7F2F841EC1A0B274890ED000A59
:101120001A48D0ED000A20EE200A2248D0ED000A2D
:10113000184890ED001A00EE810AF0EE000A20EE49
:10114000200A10EE101A0846FFF7D7F841EC1B0BE7
:10115000B0EE4A1AF0EE6A1AB0EE4B0AF0EE6B0AE5
:1011600003F0D6FEB0EE409AF0EE609A9FED140BBD
:1011700053EC102B51EC190BFFF74DF841EC180B09
:10118000FFF7CEF83060002040E40000DC020020D1
:10119000FC020020E002002000030020F8020020F2
:1011A000BC020020C0020020C4020020E402002093
:1011B000F4020020D4020020D8020020A002002067
:1011C0000000006066A64C4000BFFEE72DE9F0413C
:1011D0008AB004460D4616461F46DDF840800121C0
:1011E000082002F0D1FA0121480602F0DDFA0320BE
:1011F000089002208DF8240000208DF826000120A0
:101200008DF8270003208DF8250008A92D4801F04E
:1012100075FC092201212B4801F0B8FC09220021AC
:10122000284801F0B3FC00208DF81A0001208DF849
:101230001B0000208DF81C008DF81D008DF81E008D
:1012400001208DF81F008DF816808DF817408DF85D
:1012500019508DF81860ADF8147005A91A4800F0FF
:10126000DEFA00208DF80E008DF80F0001208DF8B9
:1012700010000020ADF80400ADF80600ADF808003D
:10128000ADF80A00ADF80C0001208DF8110001A89E
:1012900000F0A8F9012202210B4800F0B7FA14204F
:1012A0008DF8000000208DF8010001208DF802006B
:1012B0008DF80300684602F055F901200AB0BDE838
:1012C000F0810000000C02400064004000B585B0D1
:1012D0000221274800F00AFA002846D0254A0021BA
:1012E000234800F026FB142222496846FEF768FFD7
:1012F000009800F4007050B11F480068401C1E495F
:101300000860009988B20DF10B0104F0DFFE00982F
:10131000B0F5A87F03D10DF10B0002F089F940F27E
:1013200051110098884218D19DF80B00134948705C
:101330009DF80C0008709DF80D00C8709DF80E0017
:1013400088709DF80F0048719DF8100008719DF895
:101350001100C8719DF81200887105480C300068B2
:1013600040F0200002490C31086005B000BD0000CB
:10137000006400400C040020140000202000002025
:101380002DE9F04186B007460D4690460024CDF881
:101390000480002002908DF80C008DF80D008DF86F
:1013A0000E5000BF05E0395D0DF10F000155601CC6
:1013B00084B2AC42F7DB01A90D4800F032FB0646CF
:1013C000002401E0601C84B23146094800F0BCFBF7
:1013D00018B940F6FF708442F4DB40F6FF70844297
:1013E00003D1012006B0BDE8F0810020FAE700003B
:1013F000006400402DE9F0418AB004460D461646CF
:101400001F46DDF840800121022002F0BDF90121D4
:10141000880602F0C9F96020089002208DF82400A7
:1014200000208DF8260001208DF8270003208DF87C
:10143000250008A92D4801F061FB092206212B484F
:1014400001F0A4FB09220521284801F09FFB0020A0
:101450008DF81A0001208DF81B0000208DF81C006B
:101460008DF81D008DF81E0001208DF81F008DF8ED
:1014700016808DF817408DF819508DF81860ADF86A
:10148000147005A91A4800F0CAF90E208DF80E0054
:1014900000208DF80F0001208DF810000020ADF81D
:1014A0000400ADF80600ADF80800ADF80A00ADF88C
:1014B0000C0001208DF8110001A800F093F8012222
:1014C00002210B4800F0A2F940208DF80000002016
:1014D0008DF801008DF8020001208DF803006846A8
:1014E00002F040F801200AB0BDE8F081000402409B
:1014F0000068004000B585B00221194800F0F6F8F8
:1015000060B3184A0021164800F013FA1422154956
:101510006846FEF755FE009800F4007050B112487E
:101520000068401C10490860009988B20DF10B0159
:1015300001F09AFF40F202510098884206D10B4810
:10154000DDF80B100160DDF80F10416004480C302D
:10155000006840F0200002490C31086005B000BD71
:1015600000680040200400201800002064010020D2
:101570002DE9F04186B007460D4690460024CDF88F
:101580000480002002908DF80C008DF80D008DF87D
:101590000E5000BF05E0395D0DF10F000155601CD4
:1015A00084B2AC42F7DB01A90D4800F03AFA0646D6
:1015B000002401E0601C84B23146094800F0C4FAFE
:1015C00018B940F6FF708442F4DB40F6FF708442A5
:1015D00003D1012006B0BDE8F0810020FAE7000049
:1015E0000068004010B50021837A012202FA03F15D
:1015F0003D4A126842F001023B4B1A603A4A1C32E3
:1016000012688A43384B1C331A60027BCAB9364AC7
:101610000C3212688A43344B0C331A604288C388F8
:1016200042EA0343304A4032847A42F83430028836
:10163000838842EA03432C4A4032847A02EBC40294
:101640005360027B012A19D1274A0C3212680A43DF
:10165000254B0C331A604288038842EA0343224A2E
:101660004032847A42F83430C288838842EA0343A5
:101670001D4A4032847A02EBC4025360C27A3AB9FE
:10168000194A121D12688A43174B1B1D1A6006E087
:10169000154A121D12680A43134B1B1D1A6002895A
:1016A00032B9114A143212688A430F4B14331A604C
:1016B0000289012A06D10C4A143212680A430A4BE5
:1016C00014331A60427B012A06D1074A1C32126881
:1016D0000A43054B1C331A60034A126822F00102C8
:1016E000014B1A6010BD00000066004070B5044652
:1016F0000D46002660692840002871D0B5F5807F2E
:101700005CD010DC082D35D006DC012D20D0022D58
:1017100024D0042D72D127E0102D31D0202D35D0CA
:10172000402D6BD138E0B5F5004F60D009DCB5F540
:10173000007F49D0B5F5806F4CD0B5F5006F5DD115
:101740004FE0B5F5803F2DD0B5F5003F56D12FE0E5
:10175000A0682D4900F0AAFA064651E0E06803218E
:1017600000F0A4FA06464BE0E068082100F09EFA7B
:10177000064645E0E068102100F098FA06463FE092
:101780002069032100F092FA064639E02069082119
:1017900000F08CFA064633E02069102100F086FA4A
:1017A00006462DE06068082100F080FA064627E032
:1017B0006068102100F07AFA064621E0A069012154
:1017C00000F074FA06461BE0A069022100F06EFAF0
:1017D000064615E0A069042100F068FA06460FE00D
:1017E0000FE0A069702100F061FA064608E0606829
:1017F000042100F05BFA064602E0FFE7002600BF86
:1018000000E00026304670BD010101001AB14369B5
:101810000B43436102E043698B434361704730B53A
:10182000024600200023146824F0020414601468A7
:1018300044F00104146000E05B1C546804F00104EF
:101840001CB94FF6FF74A342F6D1546804F00104AA
:101850000CB900206CE08C79012C04D1146844F0A0
:101860008004146003E0146824F080041460CC79D0
:10187000012C04D1146844F04004146003E014689F
:1018800024F0400414600C7A012C04D1146844F054
:101890002004146003E0146824F0200414604C7ADF
:1018A000012C04D1146844F01004146003E014689F
:1018B00024F0100414608C7A012C04D1146844F0D4
:1018C0000804146003E0146824F008041460CC7A5F
:1018D000012C04D1146844F00404146003E014687B
:1018E00024F0040414608C78A407CD7844EA0564DD
:1018F0000D7944EA05444D7944EA05540D886D1E7E
:101900002C43D461146824F001041460002300E027
:101910005B1C546804F001041CB14FF6FF74A34231
:10192000F6D1546804F001040CB1002000E001205D
:1019300030BD10B500F5D87303EB01131B6803F03D
:1019400004031372137A53B900F5D87303EB011330
:101950001B6840F2FF7404EA5353136009E000F57A
:10196000D87303EB01131B686FF0604404EAD303E0
:10197000536000F5D87303EB01131B6803F00203F7
:10198000537200F5D87303EB01135B6803F00F0388
:10199000937200F5D87303EB01135B681B0AD374D1
:1019A00000F5D87303EB01139B68D37200F5D8736D
:1019B00003EB01139B681C0A147300F5D87303EB47
:1019C00001139B681C0C547300F5D87303EB0113CF
:1019D0009B681B0E937300F5D87303EB0113DB6850
:1019E000D37300F5D87303EB0113DB681C0A14747E
:1019F00000F5D87303EB0113DB681C0C547400F57D
:101A0000D87303EB0113DB681B0E937421B9C36811
:101A100043F02003C36003E0036943F02003036144
:101A200010BD10B502460020936803F08063B3F147
:101A3000806F00D110E0936803F00063B3F1006F92
:101A400001D1012008E0936803F08053B3F1805F77
:101A500001D1022000E00420042874D002F5C073F4
:101A600003EB00131B6803F0010402F5C07303EBE2
:101A700000131C600B7A7BB94B7A0C8843EA445301
:101A800002F5C07404EB00142468234302F5C0740B
:101A900004EB0014236010E00B7A4C6843EAC403A3
:101AA0004C7A234302F5C07404EB001424682343EA
:101AB00002F5C07404EB001423608B7A03F00F036B
:101AC0008B7202F5C07303EB00135B6823F00F0405
:101AD00002F5C07303EB00135C6002F5C07303EB07
:101AE00000135B688C7A234302F5C07404EB001486
:101AF00063608B7B1C064B7B44EA03440B7B44EA0C
:101B00000323CC7A234302F5C07404EB0014A360D2
:101B10008B7C1C064B7C44EA03440B7C44EA032385
:101B2000CC7B234302F5C07404EB0014E36002F5A0
:101B3000C07303EB00131B6843F0010402F5C0738C
:101B400003EB00131C6010BD10B50246002321B149
:101B5000012907D002290FD109E090681D4C00EA45
:101B600004030BE090681C4C00EA040306E0906854
:101B70001A4C00EA040301E0002300BF00BF184C28
:101B8000181BA34216D007DC83B16FF080601844A5
:101B900070B1022818D111E0B0F5007F10D0114CBF
:101BA000204448B1B0F5003F0ED10BE002230DE018
:101BB00000230BE0002309E0002307E0012305E0F8
:101BC000012303E0012301E0002300BF00BFD8B2DE
:101BD00010BD000003000004000300080000031013
:101BE000000100080001FFF72DE9FF5F05461646DA
:101BF0001F46DDF84CB0DDE9108ADDF838902C4640
:101C0000002004E00199095C2154411CC8B203285A
:101C1000F8DB14F8030F66F302002070207820F040
:101C2000380038302070208867F389102080607871
:101C300069F385006070B4F801100F9860F38E119D
:101C4000A4F80110608868F3CF106080A0886AF360
:101C50000900A080B4F80510129860F38C01A4F874
:101C60000510E0886BF34F10E08020896FF30900C6
:101C700020810021B4F8090061F38C00A4F8090068
:101C8000608961F34F106081E41E1C22064905F152
:101C90000F00FEF795FA424605F10F001499FEF782
:101CA0008FFABDE8FF9F00003201002002460020AD
:101CB00002EA01030BB1012000E00020704730B5BB
:101CC00004460D462946204602F0A8FD30BD00001E
:101CD00010B5A5201E4908702420A1F8010000209D
:101CE000C8701C480A680260097901710521FEF775
:101CF000C3FD40F201301649A1F805004FF4817090
:101D0000A1F80700144890F849101148A0F80910EC
:101D10001148B0F8B7100E48A0F80B100F48016832
:101D20000F48006804F08CF90948B0F80100821CE3
:101D30000749491D0748401DFEF742FA2D21054875
:101D4000FEF782FD2D210348FFF7B9FF10BD00000B
:101D50002B0900202C060020A004002034000020C5
:101D6000300000202648007808B1012000E0002063
:101D7000244908702248407808B1012000E0002082
:101D8000214908701E48807808B1012000E0002039
:101D90001E4908701A48C07808B1012000E00020F0
:101DA0001B4908701648407908B1012000E0002066
:101DB000184908701248007908B1012000E000209D
:101DC000154908701548006800EE100AF2EE0C0A7A
:101DD00030EE600AF2EE040A20EE200A104880ED90
:101DE000000A90ED000ADFED0F0AB4EEE00AF1EE12
:101DF00010FA03DD9FED0B0A80ED000A704700002A
:101E00002000002028000020290000202A000020B7
:101E10002B0000202D0000202C0000206401002059
:101E20003C0000200000C84210B5A5201F490870E2
:101E30002420A1F801000020C8701D480A68026033
:101E4000097901710521FEF717FD40F201301749AC
:101E5000A1F805004FF48170A1F80700154890F82B
:101E600049101248A0F809101248B0F8B7100F48EE
:101E7000A0F80B101048D0ED000A104890ED000AB1
:101E800003F0ACFF0948B0F80100821C0749491D66
:101E90000748401DFEF794F92D210548FEF7D4FCB4
:101EA0002D210348FFF70BFF10BD0000760900202D
:101EB0002C060020A0040020440000204000002048
:101EC00010B5A5201C4908705120A1F80100002080
:101ED000C8701A480A680260097901710521FEF785
:101EE000CBFC40F201301449A1F8050040F2031088
:101EF000A1F80700124890F849100F48A0F80910FF
:101F00000F48B0F8B7100C48A0F80B1000F050FCC8
:101F10000948B0F80100821C0749491D0748401DC7
:101F2000FEF74EF95A210548FEF78EFC5A21034868
:101F3000FFF7C5FE10BD0000C00800202C060020E1
:101F4000A004002010B520480078072802DB0020FC
:101F50001D490870A5201D4908703320A1F8010013
:101F60000020C8701A480A680260097901710521C9
:101F7000FEF782FC40F201301449A1F805004FF44D
:101F80008870A1F80700134890F849100F48A0F88E
:101F900009101048B0F8B7100C48A0F80B1000F06A
:101FA0002BFC0A48B0F80100821C0849491D08486A
:101FB000401DFEF705F93C210548FEF745FC3C2194
:101FC0000348FFF77CFE10BD50010020840800206C
:101FD0002C060020A004002010B5A5201E49087082
:101FE0001520A1F801000020C8701C480A68026092
:101FF000097901710521FEF73FFC40F201301649D5
:10200000A1F8050040F20110A1F80700144890F86B
:1020100049101148A0F809101148B0F8B7100E483F
:10202000A0F80B100F4800680F4991ED000A04F06A
:1020300045F90948B0F80100821C0749491D0748C5
:10204000401DFEF7BDF81E210448FEF7FDFB1E21D2
:102050000248FFF734FE10BD580900202C0600206E
:10206000A0040020380000203C00002010B5FFF73D
:1020700079FE5648006856490978B0FBF1F201FB39
:10208000120010B9FFF75EFF4CE05048006850495D
:102090000978B0FBF1F201FB1200012805D1FFF72E
:1020A0000FFF02204B4908703CE04848006848494F
:1020B0000978B0FBF1F201FB1200042805D1FFF70B
:1020C0008BFF0220444908702CE0404800684049DA
:1020D0000978B0FBF1F201FB1200022805D1FFF7ED
:1020E000F7FD02203D4908701CE038480068384977
:1020F0000978B0FBF1F201FB1200032805D1FFF7CC
:1021000093FE0220364908700CE0304800683049E0
:102110000978B0FBF1F201FB1200052802D1022080
:102120003049087029480068C821B0FBF1F201FB72
:102130001200012802D103F0C1F92EE02348006803
:10214000C821B0FBF1F201FB12000A2802D103F012
:102150009DF822E01D480068C821B0FBF1F201FBA8
:102160001200142802D103F01DF916E01748006888
:10217000C821B0FBF1F201FB12001E2802D103F0CE
:1021800057F90AE011480068C821B0FBF1F201FBE1
:102190001200282801D103F0BFF80C480068642120
:1021A000B0FBF1F201FB120050B90120094908709F
:1021B0000A4908700A4908700749087009490870F7
:1021C00002480068401C0149086010BD6001002001
:1021D0005C01002051010020530100205201002029
:1021E000540100205501002010B5034693F8A000CB
:1021F000092801DB002010BD93F8A00003EB0010BC
:102200008160002093F8A04003EB0414207093F841
:10221000A00003EB00104260002093F8A04003EB05
:102220000414E06093F8A000401C83F8A000012093
:10223000E1E7000000B597B00121042001F0A4FA05
:102240000121082001F0A0FA0121480501F09CFAC3
:102250000121080501F0A8FA08220C21464800F0E7
:1022600095FC08220221454800F090FC04201590BE
:1022700002208DF8580003208DF8590000208DF8B9
:102280005A008DF85B0015A93C4800F037FC4FF46C
:102290008050159015A9384800F030FC4FF4E1301B
:1022A00011900020ADF84800ADF84A00ADF84C00A0
:1022B000ADF850000C20ADF84E0011A9304802F0E6
:1022C0003DF935208DF8400001208DF841008DF852
:1022D00042008DF8430010A801F044F9012240F2B9
:1022E0002441274802F005F90122C021244802F0C8
:1022F000C0F84FF0006001902148001D0290214875
:10230000039000200490C8200590002006904FF410
:10231000806007900020089009904FF480700A9028
:1023200040020B9000200C9003200D9000200E9096
:102330000F9001A9144800F023F91449124800F045
:102340009BF81349104800F097F812490E4800F026
:1023500093F811490C4800F08FF810490A4800F032
:102360008BF80121084800F0A1F80121044802F08F
:1023700074F817B000BD000000080240000C0240D5
:1023800000500040640500201060024001000090F1
:1023900004100010082000101040001020800010D1
:1023A00010B50A490A4800F067F80A49084800F0E1
:1023B00063F80949064800F05FF80849044800F04E
:1023C0005BF80749024800F057F810BD0100009083
:1023D000106002400410001008200010104000108F
:1023E0002080001010B511480068401C0F4908609B
:1023F0000F49104800F074F8B8B10C480068401C50
:102400000A4908600A490B4800F036F80A490948A9
:1024100000F018F8074800F058F830B907490848A4
:1024200003F086FC00210648818310BD1C000020BB
:102430000088002088600240000800207C04002002
:102440004C0400200246094B9A4201D2084801E0A0
:102450000648103801F000531BB1064B0B40C36017
:1024600002E0044B0B4083607047000010640240A0
:10247000006002407D0F7D0F0246094B9A4201D257
:10248000084801E00648103801F000531BB1064B24
:102490000B40C36002E0044B0B40836070470000B8
:1024A00010640240006002407D0F7D0F21B1026880
:1024B00042F00102026003E0026822F001020260C1
:1024C00070470146486880B27047014600200A689C
:1024D00002F400220AB1012000E000207047000051
:1024E00070B50246002000240025124EB24201D2EF
:1024F000114B01E00F4B103B104E0E4036B11E2623
:1025000006EAD124166806EA040502E0566906F0D8
:10251000800501F000560EB15C6800E01C68084EB2
:10252000344004EA010616B10DB1012000E000209C
:1025300070BD000010640240006002403C0F3C0F80
:102540007D0F7D0F10B501F080034BB122B14369BF
:1025500043F08003436103E0436923F08003436158
:1025600080290BD02AB1036801F01E0423430360C5
:1025700004E0036801F01E04A343036010BD0000E3
:1025800010B500220268134B1A40CC680B68234335
:102590004C6923438C692343CC6923430C6A23434E
:1025A0004C6A23438C6A23434C6B23438C6B234339
:1025B0001A430260426922F00702D1E90B34234337
:1025C0001A4342610B6943604B6883608B68C36048
:1025D00010BD00003F801CF070470000734890F869
:1025E00049000A2871DA01207049A1F89D000221F2
:1025F0006E48A0F89F100321A0F8A1100421A0F8B4
:10260000A3100521A0F8A5100621A0F8A710072106
:10261000A0F8A91040F20111A0F8AB10491CA0F8D5
:10262000AD10491CA0F8AF10491CA0F8B110491C0E
:10263000A0F8B310491CA0F8B51090F84900012883
:1026400006D15A48B0F8AB005849A1F8B700ACE041
:10265000564890F84900022806D15448B0F8AD0019
:102660005249A1F8B700A0E0504890F8490003286B
:1026700006D14E48B0F8AF004C49A1F8B70094E03D
:102680004A4890F84900042806D14848B0F8B100FB
:102690004649A1F8B70088E0444890F84900052869
:1026A00006D14248B0F8B3004049A1F8B7007CE039
:1026B0003E4890F84900062877D13C48B0F8B5006C
:1026C0003A49A1F8B70070E0FFE765203749A1F863
:1026D0009D0066213548A0F89F106721A0F8A11041
:1026E0006821A0F8A3106921A0F8A5106A21A0F81C
:1026F000A7106B21A0F8A91040F26511A0F8AB104B
:10270000491CA0F8AD10491CA0F8AF10491CA0F856
:10271000B110491CA0F8B310491CA0F8B51090F8EE
:102720004900652806D12148B0F8AB001F49A1F83F
:10273000B7003AE01D4890F84900662806D11B48CA
:10274000B0F8AD001949A1F8B7002EE0174890F88D
:102750004900672806D11548B0F8AF001349A1F821
:10276000B70022E0114890F84900682806D10F48C8
:10277000B0F8B1000D49A1F8B70016E00B4890F889
:102780004900692806D10948B0F8B3000749A1F803
:10279000B7000AE0054890F849006A2805D10348C7
:1027A000B0F8B5000149A1F8B7007047A0040020B7
:1027B00010B50B4801780B48007803F0BFFB0A48BE
:1027C000007803F0E7FC0948007803F061FA084854
:1027D000007803F0A3FE0748007803F007FA10BD65
:1027E00029000020280000202A0000202B000020C3
:1027F0002C0000202D00002010B588B0584800782B
:10280000D8B95848FDF700FD0446564840F22A3131
:1028100032220123CDE90332CDE905100A20082137
:1028200000230122CDE9010400914FA14F48FFF799
:10283000DBF901204A4908708FE0494800780128F7
:102840001BD14B48FDF7E0FC044649484FF4347176
:1028500032220123CDE90332CDE905100A200821F7
:1028600000230122CDE90104009142A13F48FFF776
:10287000BBF902203A4908706FE039480078022815
:102880001BD13D48FDF7C0FC04463B4840F2762191
:1028900032220123CDE90332CDE905100A200821B7
:1028A00000230122CDE90104009134A12F48FFF754
:1028B0009BF903202A4908704FE029480078032833
:1028C0001BD12F48FDF7A0FC04462D484FF407719B
:1028D00032220123CDE90332CDE905100A20082177
:1028E00000230122CDE90104009126A11F48FFF732
:1028F0007BF904201A4908702FE019480078042851
:1029000003D105201649087027E0154800780528EE
:1029100003D10620124908701FE0114800780628EC
:102920001BD11948FDF770FC0446174840F2762188
:102930004FF4D7620123CDE90332CDE905100A2017
:10294000082100230122CDE9010400910FA10748CD
:10295000FFF74AF907200249087008B010BD0000CF
:102960005001002060000020434C310091080020FD
:102970007E000020434C32009C000020434C33007A
:10298000BA000020434C340014010020434C3700AF
:102990002DE9F04FDDE90F9E09AC94E8F010DDF869
:1029A00038804FF0000A07E011F80AB000F80AB0CA
:1029B0000AF1010B0BF0FF0ABAF1030FF4DB90F8F8
:1029C00003A062F3020A80F803A090F803A063F367
:1029D000C50A80F803A0B0F803A064F3891AA0F830
:1029E00003A090F804A065F3850A80F804A0B0F86D
:1029F00004A066F38E1AA0F804A0B0F805A067F34F
:102A0000CF1AA0F805A0B0F807A06CF3090AA0F847
:102A100007A0B0F808A068F38C0AA0F808A0B0F8E6
:102A200009A069F34F1AA0F809A0B0F80BA06EF343
:102A3000090AA0F80BA0B0F80CB0DDF844A06AF3C6
:102A40008C0BA0F80CB0B0F80DB0DDF848A06AF31C
:102A50004F1BA0F80DB0BDE8F08F2DE9F04FDDE978
:102A60000F9E09AC94E8F010DDF838804FF0000AB2
:102A700007E011F80AB000F80AB00AF1010B0BF0F8
:102A8000FF0ABAF1030FF4DB90F803A062F3020A25
:102A900080F803A090F803A063F3C50A80F803A0B0
:102AA000B0F803A064F3891AA0F803A090F804A07A
:102AB00065F3850A80F804A0B0F804A066F38E1AC6
:102AC000A0F804A0B0F805A067F3CF1AA0F805A0FD
:102AD000B0F807A06CF3090AA0F807A0B0F808A0A6
:102AE00068F38C0AA0F808A0B0F809A069F34F1A9F
:102AF000A0F809A0C0F80BE0BDE8F08FF0B50A46D9
:102B000000210023002400BF3DE0012505FA01F368
:102B1000156805EA03049C4234D105684F0003267A
:102B2000BE40B543056015794E00B5400668354393
:102B300005601579012D02D01579022D16D1856811
:102B40004F000326BE40B543856055794E00B54021
:102B5000866835438560456801268E40B5434560EB
:102B6000456896798E40B6B235434560C5684F00DA
:102B70000326BE40B543C560D5794E00B540C66852
:102B80003543C560491C1029BFD3F0BDF0B5002303
:102B900000244D07ED0E02FA05F3CE1000F12005DA
:102BA00055F826504E07F70E0F26BE40B543CF10FE
:102BB00000F1200646F82750CE1000F1200555F808
:102BC000265045EA0304CE1000F1200545F82640C2
:102BD000F0BD01837047000030B5034613B94FF6CE
:102BE000FF7030BD09E013F8014B82EA0400C0B267
:102BF000054D35F8100080EA2222081EA1F10101DE
:102C0000F1D11046EDE70000A666000830B5034696
:102C100005E013F8010B80EA02040448025D081E77
:102C2000A1F10101F5D1104630BD0000A5650008F5
:102C300070B52DED028B054635B93C4C94222146EA
:102C40003B48FDF7BDFA08E0012D06D1374C943C16
:102C5000942221463748FDF7B3FA607E032804D05A
:102C60000020A082BDEC028B70BD94F8900030B3C0
:102C7000B4F90600B4F90410401A00EE100AB8EED8
:102C8000C00AD4E90310401A00EE900AF8EEE00AF8
:102C90009FED291AB0EE408A01EE208AB0EE480A74
:102CA00004F1580000F0DAFC94ED1F0ABDEEC00AF2
:102CB00010EE100A06B23146204600F04FFCB4F97F
:102CC0000000B4F90210401A00EE100AB8EEC00A73
:102CD000B0EE408AB0EE480A04F11C0000F0BEFCE1
:102CE00094ED100ABDEEC00A10EE100A00B21349AE
:102CF0000880B4F91600B1F90010884203DAE08ABE
:102D00000E4908800CE0B4F9160040420B49B1F9B5
:102D10000010884204DDE08A404200B20749088082
:102D20000648B0F90000A08200BF9BE7F025002014
:102D3000D4290020682A00200000004678020020E4
:102D4000020A034B1A7058700A0A9A70D9707047B9
:102D50009801002000BFFEE710B500200F49086071
:102D60000F48006820F040400D49086008460068A0
:102D700040F08040086000200A49C1F8BC020220EF
:102D800003F0EAFA012005490860022003F0E4FAA2
:102D900000200449C1F8B40210BD0000B4824042D2
:102DA000000402400080404210B500200F49086036
:102DB0000F48006820F040400D4908600846006850
:102DC00040F08040086001200A49C1F8BC0202209E
:102DD00003F0C2FA012005490860022003F0BCFAA2
:102DE00000200449C1F8B40210BD0000B482404282
:102DF000000402400080404270B505460024164899
:102E0000006820F0404014490860084600680860E7
:102E1000002616E0002011490860022003F09CFA09
:102E200001200F49C1F8B4026006040E0B4878383F
:102E3000006808B1601CC4B2012003F08DFA701C58
:102E4000C6B2082EE6DB15B9FFF7AEFF01E0FFF7CB
:102E500083FF204670BD000000040240B48240425F
:102E60000080404270B504461548006820F040409C
:102E7000134908600846006840F080400860002060
:102E800010490860002517E0E0090E490831086084
:102E90006006040E022003F05FFA01200A49C1F81F
:102EA000B402022003F058FA00200649086002200C
:102EB00003F052FA681CC5B2082DE5DB70BD0000B6
:102EC00000040240B48240420080404210B50F48E6
:102ED000006820F040400D4908600846006840F056
:102EE0008040086001200A4908600A49C1F8B4021C
:102EF000042003F031FA002005490860042003F0A3
:102F00002BFA00200349C1F8B40210BD00040240AE
:102F1000BC8240420080404210B50F48006820F05B
:102F200040400D4908600846006840F08040086055
:102F300000200A4908600A49C1F8BC02042003F0D5
:102F40000BFA0120054908600549C1F8BC020420BC
:102F500003F002FA10BD000000040240B4824042B7
:102F60000080404210B500241348006820F0404023
:102F70001149086008460068086001200F49086090
:102F800003F0EAF901200E49C1F8B40203F0E4F9B4
:102F900007E0601CC4B2FA2C03DDFFF7BDFF01207F
:102FA00010BD0648803800680028F2D1034908396E
:102FB000086000BFF4E7000000040240BC82404209
:102FC0000080404200B589B006A807A908AB0D4AA9
:102FD000CDE90010111D881EFDF760FC06A907AAA7
:102FE00008AB0848CDE9023204910190001D831E10
:102FF000A0F11002991F00900C38FDF7ABFC09B04E
:1030000000BD0000800B002070B506460D46002470
:10301000C8223146AA48FDF7D3F848E1A848005D28
:10302000A52873D1A6490819052101F025FC00281F
:103030006CD00020A3490860A149601C085C0A46C6
:10304000A11C515C4FF47F4202EA012108439D49D3
:1030500008600846006820440930A84202D9601C74
:10306000C4B224E19649081996490968093101F06A
:10307000E3FB0028DCD09249601D085C0A46A11DD4
:10308000515C4FF47F4202EA012108438E490860F7
:103090000846006840F20512811A90427BD011DC8C
:1030A000052842D006DC012817D0032821D00428A7
:1030B00070D12DE0A0F2011048B301284FD00328B1
:1030C000F6D159E0A1F1FC00092863D2DFE800F055
:1030D0006F8294A0E4B0C0E4D2000B20794908606C
:1030E000774AE01D1118774802687848FDF768F8BC
:1030F000D3E0202073490860714AE01D111871481F
:10310000026872480B30FDF75BF8C6E0CCE019E0CE
:1031100003206C4908606A4AE01D1118694802687A
:103120006A482B30FDF74CF8B7E00B206549086082
:10313000634AE01D11186348026864482E30FDF7A9
:103140003FF8AAE004205F4908605D4AE01D1118BD
:103150005C4802685D483930FDF732F89DE0042094
:1031600058490860564AE01D1118564802685748E9
:103170003D30FDF725F890E0022052490860504AA2
:10318000E01D11184F48026850484130FDF718F80B
:1031900083E000E080E04A49E01D01444B48401FC5
:1031A000097880F8481001204649086075E01B2026
:1031B00044490860424AE01D11181B22434844302C
:1031C000FCF7FEFFFFF70AFA01204049491F81F88A
:1031D000B90062E010203B490860394AE01D11182F
:1031E0003848026839485F30FCF7EAFF0120374968
:1031F000491F81F8BA0050E0314AE01D1118102231
:1032000032486F30FCF7DCFF10202E49086044E0A4
:103210002B49E01D01442D48401F097880F8841097
:103220000120284908602949491F81F8BB0034E082
:103230002349E01D01442548401F097880F8851086
:103240000120204908602149491F81F8BC0024E081
:1032500007201C4908601A4AE01D11181948026825
:103260001A488130FCF7ACFF01201849491F81F84A
:10327000BD0012E0042013490860114AE01D111836
:103280001048026811488E30FCF79AFF01200F4960
:10329000491F81F8BF0000E000BF00BF0948007867
:1032A00009302044C4B202E0601CC4B200BFAC428A
:1032B000FFF6B4AEC8210248FCF79BFF70BD0000CA
:1032C000F40600205400002058000020A50400202F
:1032D00041804A1C82800022C28002220270704714
:1032E0001CB50121042000F04FFA00208DF80700E2
:1032F00002208DF8050001208DF8040000208DF8D3
:1033000006004FF4D840009069460448FFF7F6FBEA
:103310004FF400510148FFF75CFC1CBD000802405F
:103320002DE9F04107460C461546FFF7CFFD15493C
:103330000978002242EA4101C8B2FFF793FDFFF786
:1033400011FE3846FFF78EFDFFF70CFEFFF7BEFDBE
:103350000C490978012202EB4101C8B2FFF782FD56
:10336000FFF700FE002606E00120FFF745FD207074
:10337000641C701CC6B2AE42F6DBFFF7CDFDBDE8A3
:10338000F08100000503002000BFFEE70021017668
:103390000321417670470000F0B502460C462378C1
:1033A000A6782779607863F31F2003B2E07866F38C
:1033B0001F2006B2607967F31F2007B2B2F904003C
:1033C00098421DDC00EE103AB8EEC00ADFED250A87
:1033D00070EEC00AB2F9040000EE100AB8EEC00A9E
:1033E00030EE800ABDEEC00A10EE105A15F57A6F65
:1033F00027DDB5F57A6F24DAD068401ED06020E072
:10340000B2F9040098421CDD00EE103AB8EEC00A92
:10341000DFED140A70EE200AB2F9040000EE100A83
:10342000B8EEC00A30EEC00ABDEEC00A10EE105A67
:1034300015F57A6F05DDB5F57A6F02DAD068401CB4
:10344000D060507E022802D1D38000201061104647
:10345000FFF79CFF938056801781A079907200201F
:10346000F0BD000000F8FF4570B504460D46A4F21B
:1034700001200F281AD2DFE800F008090A0B0C0D12
:103480000E0F101112131415160000BF00BF00BF5D
:1034900000BF00BF00BF00BF00BF00BF00BF00BF34
:1034A00000BF00BF00BF04F00F0401E0012070BDA9
:1034B00000BF022C04D129461048FFF76DFF1AE027
:1034C000032C05D129460D489438FFF765FF12E01B
:1034D000062C04D129460A48FFF75EFF0BE00C2CAE
:1034E00009DA04EB840101EB4411064A02EB810086
:1034F0002946FFF751FF0020D9E7000018200020DF
:10350000F01E0020B0150020F0B507460C462546F9
:103510002646E01704EBD0404013A4EB403002B243
:10352000E01704EBD0404113384600F001F8F0BD3D
:1035300010B5B0F904309C1823B2B2F5005F04DB7B
:10354000A2F5005422B2491C05E0002A03DA02F574
:10355000005422B2491E0161C28010BD0180704733
:103560007047000070B5002100230F22C4781CB3FF
:10357000174C246804F4E064C4F5E064C4F3072144
:10358000C1F10404E3B20A4144789C40E1B284787A
:10359000144021430C07210E0E4C05786155047828
:1035A00004F01F050124AC4005786D11AD0005F154
:1035B000E025C5F8004109E0047804F01F05012466
:1035C000AC40054D0678761145F8264070BD0000E8
:1035D0000CED00E000E400E080E100E0024901437E
:1035E000024A1160704700000000FA050CED00E08F
:1035F0009FED0E3A80ED033A9FED0C3A80ED043AD0
:10360000C0ED051A9FED093A80ED003A80ED012AE0
:1036100080ED060AC0ED070A80ED081A9FED033A17
:1036200080ED093AC0ED0A2A704700000000000052
:103630000CB501680091416801919DED000A0449B3
:1036400081ED000A9DED010A024981ED000A0CBDE1
:10365000400000204400002070470000F0EE400AC7
:1036600090ED010A30EEC00A9FED441AB4EEC10A93
:10367000F1EE10FA0ED290ED010A30EE200A9FED25
:10368000401AB4EEC10AF1EE10FA03DD9FED3D0AD7
:10369000F0EE400A90ED040A30EE200A80ED040AB4
:1036A00090ED000A30EEC00A80ED030AC0ED000A7A
:1036B00090ED040A90ED051AB4EEC10AF1EE10FA8D
:1036C00004DD90ED050A80ED040A10E090ED040A97
:1036D00090ED051AB1EE411AB4EEC10AF1EE10FAFE
:1036E00005D290ED050AB1EE400A80ED040A90ED96
:1036F000060A90ED001A20EE010A80ED0B0A90ED0B
:10370000070A90ED041A20EE010A80ED0C0A90EDF4
:10371000080A90ED031A20EE010A80ED0D0A90EDE3
:103720000B0A90ED0C1A30EE010A90ED0D1A30EEF6
:10373000010A80ED090A90ED090A90ED0A1AB4EE2B
:10374000C10AF1EE10FA04DD90ED0A0A80ED090AD3
:1037500010E090ED090A90ED0A1AB1EE411AB4EEAC
:10376000C10AF1EE10FA05D290ED0A0AB1EE400A54
:1037700080ED090A90ED090A704700006F12833A44
:103780006F1283BA0000000029B1064A1268024392
:10379000044B1A6004E0034A12688243014B1A602A
:1037A000704700003038024029B1064A12680243CF
:1037B000044B1A6004E0034A12688243014B1A600A
:1037C000704700004038024029B1064A126802439F
:1037D000044B1A6004E0034A12688243014B1A60EA
:1037E0007047000044380240F0B500210022002458
:1037F000022500260223324F3F6807F00C0121B159
:10380000042905D0082937D105E02E4F076036E09E
:103810002D4F076033E02A4F3F1F3F68C7F38056A4
:10382000274F3F1F3F6807F03F036EB1264FB7FB9E
:10383000F3F7DFF88CC0ACF1040CDCF800C0CCF37B
:10384000881C07FB0CF40CE01E4FB7FBF3F7DFF806
:1038500070C0ACF1040CDCF800C0CCF3881C07FB92
:103860000CF4174F3F1F3F68C7F301477F1C7D00D3
:10387000B4FBF5F7076002E0124F076000BF00BF1E
:103880000F4F3F6807F0F0010909104F7A5C076895
:10389000D74047600A4F3F6807F4E051890A0B4F51
:1038A0007A5C4768D7408760054F3F6807F46041FE
:1038B000490B064F7A5C4768D740C760F0BD0000EF
:1038C000083802400024F40040787D018002002086
:1038D00010B596B0044601210846FFF755FF0121B7
:1038E0004805FFF751FF01214804FFF75DFF07225C
:1038F00003213648FFF74AF90820149002208DF87A
:10390000540003208DF8550000208DF856008DF8E6
:10391000570014A92D48FFF7F1F810940020ADF8D6
:103920004400ADF846004FF48060ADF84800002038
:10393000ADF84C000420ADF84A0010A9244800F06E
:10394000FDFD0121224800F088FD01224021204890
:1039500000F08FFD10208DF83C0001208DF83D0017
:103960008DF83E008DF83F000FA8FFF7FBFD4FF0EC
:10397000006000901648001D01901648029000203B
:10398000039012200490002005904FF48060069070
:103990000020079008904FF48070099040020A9030
:1039A00000200B9003200C9000200D900E90694693
:1039B0000948FEF7E5FD012210210748FEF7C2FD88
:1039C00001210548FEF772FD16B010BD000002404F
:1039D000004400407C0400208860024010B59FED48
:1039E000530A534880ED200A9FED500A80ED450AA6
:1039F000012180F8901080F824114FF4FA6194307E
:103A0000FFF782FD40F6C4114948FFF77DFD002015
:103A1000FFF70EF90120FFF70BF9454AB2F9A8109C
:103A2000B2F91400FFF78CF940F2FF220821414857
:103A3000FDF7A6FC4FF47A713F48C0F8C4113C482A
:103A400090ED160AF3EE040AB4EEE00AF1EE10FA75
:103A500069D890ED3B0AF3EE040AB4EEE00AF1EE09
:103A600010FA60D890ED160AFBEE040AB4EEE00AF4
:103A7000F1EE10FA57DB90ED3B0AFBEE040AB4EED0
:103A8000E00AF1EE10FA4EDBDFED2C2A9FED2C2A36
:103A9000DFED2C1A9FED2A1AF1EE080AB2EE040AA5
:103AA0001C30FFF7A5FDDFED282A9FED252ADFED6D
:103AB000251A9FED231AF7EE000AB2EE020A1C48FF
:103AC0005830FFF795FDDFED1D2AB0EE082ADFED37
:103AD0001F1A9FED1B1AF7EE000AB2EE060A1448F1
:103AE000B030FFF785FDDFED182AB1EE042ADFEDD7
:103AF000151A9FED131AF7EE000AB2EE040A0C48ED
:103B0000EC30FFF775FD00210948A0F8A81000204F
:103B1000074988820A46B2F9A810B2F91400FFF7E3
:103B20000FF9012010BD0020FCE7000000007A44DE
:103B30005C25002098010020F01E002000C0DA461D
:103B400000000000000070420000FA450000AF4392
:103B500000B52DED060B88B00023AA208DF80000DB
:103B60008DF8010001208DF8020018208DF8030067
:103B700008980190099802900A9803900B98049075
:103B80000C9805900D980690002205E01DF80200A3
:103B9000184483B2501CC2B21C2AF7DBD8B28DF88D
:103BA0001C00002205E01DF8020002F011F8501C74
:103BB000C2B21D2AF7DB0EB000BD70470CB5002065
:103BC000019000903448006840F480303249086029
:103BD00000BF3148006800F4003000900198401C9C
:103BE0000190009818B90198B0F5A04FF1D12A487A
:103BF000006800F4003010B10120009001E00020C6
:103C000000900098012846D123484030006840F0D9
:103C100080502149403108602048006840F440400D
:103C20001E4908601C48083000681B4908310860BC
:103C30000846006840F4004008600846006840F408
:103C4000A05008601648091F0860081F006840F06F
:103C50008070091F086000BF0F48006800F0007006
:103C60000028F9D040F205700E4908600A48083073
:103C7000006820F003000849083108600846006821
:103C800040F00200086000BF03480830006800F000
:103C90000C000828F8D10CBD00380240007000402C
:103CA00019544007003C0240042808D14FF0E0219D
:103CB000096941F004014FF0E022116107E04FF083
:103CC000E021096921F004014FF0E0221161704701
:103CD00010B502F0B7FB10BD10B51548006840F4F0
:103CE0007000134908601348006840F00100114952
:103CF000086000200F49083108600E4800680E492E
:103D000008400C4908600D48091D0860081F00683C
:103D100020F48020091F0860002006490C3108604B
:103D2000FFF74CFF4FF0006001498039086010BD7B
:103D300088ED00E000380240FFFFF6FE103000245E
:103D400008B502F097FB4FF47A7002F031FB4FF4A4
:103D5000A060FFF743FCFFF7C3FA002003230A2209
:103D600001210090FDF732FA002003230A220121ED
:103D70000090FDF73FFB0B48FFF7AAFD00F050FC59
:103D800000F0FCFCFCF752FDFEF754FA4FF0E02087
:103D9000006940F002004FF0E021086100F004F8F3
:103DA00008BD0000A086010000B50C4800F020F816
:103DB0000B4A14210948FEF717FA0A4A0A21074854
:103DC000FEF712FA084A02210448FEF70DFA074AE4
:103DD00001210248FEF708FA00BD0000BC0B0020DC
:103DE000E1410008713E000871420008013F0008EF
:103DF00010B503460024002083F8A10083F8A0003A
:103E000000BF06E003EB0410002100F04FFA601C35
:103E1000C4B20A2CF6DB10BD10B50121084800F031
:103E200016F8012807D10748006808B9012000E00A
:103E30000020044908600121014800F005F810BD88
:103E400000040040A8024142CA430282704730B5D4
:103E50000246002000230024158A05EA0103958903
:103E600005EA010413B10CB1012000E0002030BDCF
:103E700010B51F4800681F4908601F48B0F9BE010F
:103E800003EE100AB8EEC33AF0EE432A1A48B0F92E
:103E90002A0103EE100AB8EEC33AB0EE432A1648E0
:103EA000B0F9960003EE100AB8EEC33AF0EE431AEA
:103EB0001148B0F9020003EE100AB8EEC33AB0EEB2
:103EC000431A0D48B0F9000003EE100AB8EEC33AE9
:103ED000F0EE430A094890ED013AB0EE430AFFF7CD
:103EE00037FE03480068401C0149086010BD00000F
:103EF0007002002074020020BC200020740B0020FF
:103F000070B500250026FFF75DF8AA4890F8BA00C2
:103F1000012873D1A74C6834E078A7490870A078CD
:103F20004870607888702078C870A248B0F86C003B
:103F3000001208719F4890F86C0048719D48B0F8D5
:103F40007200001288719B4890F87200C87140F2AC
:103F5000AF1208219848FDF713FA9648B0F86400AC
:103F6000001296490870934890F864004870914890
:103F7000B0F86600001288708E4890F86600C8702D
:103F80008C4890F8BB00012809D10871894890F845
:103F9000840048710020874981F8BB0003E00020BD
:103FA000864908714871834890F8BC00012812D1F5
:103FB000824988717F4890F885000007000E7D498E
:103FC00091F8851040EA11107C49C87100207949A8
:103FD00081F8BC0003E0002078498871C8714FF473
:103FE000D77208217548FDF7CBF90020714981F897
:103FF000BA0073480068401C714908606D4890F829
:10400000B90001285CD16B4890F849006D490870EF
:10401000684890F84A0048706648B0F84B000012B3
:104020008870644890F84B00C8706248B0F84D0042
:10403000001208715F4890F84D0048715D48B0F873
:104040005F000012604908705A4890F85F0048709D
:104050005848B0F8610000128870564890F8610026
:10406000C8705448B0F85D0000120871514890F8CB
:104070005D0048714F48B0F85B00001288714D48F0
:1040800090F85B00C8715148007848B94FF4D67277
:1040900008214C48FDF774F901204C4908700FE0E5
:1040A0004A48007801280BD140F2AD120821464859
:1040B000FDF766F900203F4981F8B90043490870CF
:1040C0003C4890F8BD00012820D13A4890F886007D
:1040D0003F490870374890F887004870354890F895
:1040E00088008870334C8934E078C870A0780871F3
:1040F000607848712078887140F2AB12082134480A
:10410000FDF73EF900202B4981F8BD00294890F8C1
:10411000BE0028B32748B0F88D00000A2D4908706A
:10412000244890F88D0048702248B0F88F00000AAB
:104130008870204890F88F00C8701E48B0F8910031
:10414000000A08711B4890F8910048714FF4D5722D
:1041500008212048FDF714F90020164981F8BE0017
:10416000144890F8BF00012822D11248D0F89300DB
:10417000000E194908700F48D0F89300000C4870E1
:104180000C48B0F89300000A88700A4890F8930031
:10419000C8701248006808710120487140F2A912E5
:1041A00008210D48FDF7ECF80020024981F8BF0016
:1041B0006D1C70BDA0040020F0010020E80100206B
:1041C0004C020020D8010020E00100206C020020F9
:1041D000D0010020C8010020C00100203C02424262
:1041E00010B502F053F81E481E490A68026049687B
:1041F000416040F201520821FDF7BAF91A480068FF
:104200001921B0FBF1F201FB120038B91748006820
:1042100008B9012000E00020144908601248006835
:104220003221B0FBF1F201FB120048B90F48001D2A
:10423000006808B9012000E000200C49091D086051
:1042400009480068401C084908600846006844F6B0
:104250002061B0FBF1F201FB12000349086010BDC0
:10426000F80100206C01002028020020B402414225
:1042700010B50D4800681421B0FBF1F201FB1200EB
:1042800008B9FDF7F3FE08480068401C06490860BD
:104290000846006844F62061B0FBF1F201FB120011
:1042A0000149086010BD0000240200208160002246
:1042B0000270704770B50D48007800B970BD0025D8
:1042C0000DE00B4800EB05142078012805D10220F1
:1042D00020706068804700202070681CC5B20448C8
:1042E00090F8A000A842ECDC00BFE7E7180200202D
:1042F000BC0B002000211AE0104A02EB0110C2683A
:10430000521CC260D0E902329A420ED3027812B136
:10431000012A08D106E001220270D0E90232D21A45
:10432000C26001E000E000BF00BF4A1CD1B2034AF6
:1043300092F8A0208A42DFDC70470000BC0B00200E
:1043400001200149087070471802002010B51021A3
:10435000164800F097F838B300211548FEF7A6F884
:1043600012480088C4B211488088C4B210210F4896
:1043700000F06AF80E48FEF7A4F8C0F1C8000D4935
:104380000860084601780C48FEF73EFEC820084940
:10439000103948610848C86108490548FEF752F8D5
:1043A00001210348FEF782F810BD000000500040D4
:1043B00010600240500000206405002020800010A2
:1043C00010B540F225511D4800F069F810B31B48A4
:1043D00000F01EF9C4B21A48008800F40040C8B9C1
:1043E0001748008800F4804060B10A2C03D00020F8
:1043F0001349088020E01248008840F4004010492A
:10440000088019E00D2C06D10D48008840F480404A
:104410000B49088010E00A480088C0F30D000949E4
:104420000C5407480088401C05490880084600884D
:10443000C72801DD0020088010BD000000100140E9
:10444000080000200C03002001F40072B2F5007F88
:1044500000D100BFCA430280704721B1828942F473
:104460000052828104E082894DF6FF731A408281F6
:1044700070471AB1838A0B43838202E0838A8B439D
:104480008382704702460020B1F5007F00D100BF53
:1044900013880B400BB1012000E00020704770B57D
:1044A0000246002400230025002040F66A16B1428F
:1044B00000D100BFC1F3421501F01F03012606FA27
:1044C00003F3012D02D19689334006E0022D02D17B
:1044D000168A334001E0968A33400C12012606FA10
:1044E00004F41688344013B10CB1012000E0002020
:1044F00070BDF0B50346002400260025002040F6DC
:104500006A17B94200D100BF1846C1F3421401F046
:104510001F06012707FA06F5012C01D10C3004E033
:10452000022C01D1103000E014301AB107682F437B
:10453000076002E00768AF430760F0BD2DE9FF4761
:1045400005460E460024A14600BFA046B08900B132
:1045500000BF2C8A24F44054F08804432C82AC8998
:1045600041F20C608443B088318908437189084363
:104570000443AC81AC8A24F44074B0890443AC8217
:104580006846FFF731F92048854202D01F4885422E
:1045900002D1DDF80C9001E0DDF80890A88900F464
:1045A000004040B109EBC90000EB09103168490037
:1045B000B0FBF1F707E009EBC90000EB0910316827
:1045C0008900B0FBF1F76420B7FBF0F0040120098B
:1045D000642101FB1078A88900F4004040B132202A
:1045E00000EBC800B0FBF1F000F00700044308E066
:1045F000322000EB08106421B0FBF1F000F00F0056
:1046000004432C81BDE8FF870010014000140140E5
:1046100001468888C0F30800704700BFFEE700002D
:1046200000B597B000214C48FDF740FF01218805F7
:10463000FFF7AAF801210846FFF7A6F8012110208C
:10464000FFF7C2F8072209214448FEF79FFA072224
:104650000A214248FEF79AFA4FF4C06015900220F2
:104660008DF858008DF8590000208DF85A0001206F
:104670008DF85B0015A93948FEF740FA4FF4E13098
:1046800011900020ADF84800ADF84A00ADF84C009C
:10469000ADF850000C20ADF84E0011A93048FFF7DE
:1046A0004DFF25208DF8400001208DF841008DF848
:1046B00042008DF8430010A8FEF754FF012240F29B
:1046C00024412748FFF715FF012240212448FFF726
:1046D000D0FE4FF0006001902148001D029021485B
:1046E00003900020049032200590002006904FF4A3
:1046F000806007900020089009904FF480700A9025
:1047000040020B9000200C9003200D9000200E9092
:104710000F9001A91048FDF733FF13490E48FDF72C
:10472000ABFE12490C48FDF7A7FE11490A48FDF7F8
:10473000A3FE10490848FDF79FFE0F490648FDF704
:104740009BFE01210448FDF7B1FE01210448FFF75B
:1047500084FE17B000BD00008864024000000240E3
:1047600000100140D4030020400000A000110020F0
:1047700000220020004400200088002000B587B0FF
:1047800001210220FFF700F801218804FFF70CF84F
:1047900007220B211948FEF7F9F907220A211748C9
:1047A000FEF7F4F94FF44060059002208DF81800F0
:1047B0008DF8190000208DF81A0001208DF81B00DB
:1047C00005A90E48FEF79AF94FF4E1300190002058
:1047D000ADF80800ADF80A00ADF80C00ADF8100017
:1047E0000C20ADF80E0001A90548FFF7A7FE012136
:1047F0000348FFF732FE07B000BD0000000402408E
:10480000004800400449888000BF0349098801F03E
:1048100040010029F9D070470050004010B5034610
:104820000C46002204E0985CFFF7ECFF501C82B2BB
:10483000A242F8DB10BD000070B505460C4600260C
:104840000DB1022C01D8002070BDA11E09480288BC
:104850002846FEF7C1F90646F1B2A01E285C814247
:1048600006D1601E285CB0EB162F01D10120EBE7CA
:104870000020E9E70000002070B505460C46002640
:104880000DB1022C01D8002070BD611EFF22284608
:10489000FEF7BCF90646601E285CB04201D101203B
:1048A000F2E70020F0E703B401984100009850EAD5
:1048B000C12018BF04204A0D18BF40F0010040F28B
:1048C000FF72B2EB515F08BF40F00200012808BF41
:1048D000052002B07047000070B5C1482DED020BF5
:1048E0002DED0E8B82B0119D25F000449FEDBEDBB7
:1048F0009FEDBFEB84423EDBA4F140511098A1F143
:104900007F6108430FD0BC48844202DC28D1109854
:1049100030B39DED100B02B0BDEC0E8B02B0BDE8C4
:10492000704000F069BC9DED100B53EC1D2B51EC59
:10493000100BFBF770FC9DED100B41EC180B53ECCA
:104940001E2B51EC100BFBF766FC53EC182BFBF7FE
:1049500097FD41EC100B02B0BDEC0E8B02B070BDA8
:10496000012000F08DFC02B0BDEC0E8B02B0BDE862
:10497000704000F055BCA1489FEDA18B844256DAEF
:104980009DED100BB4F1795F0ADA51EC100BFFF7D3
:104990008AFF042808BF00F053FC9DED100BDAE7F6
:1049A00053EC102B51EC100BFBF735FC41EC190BC1
:1049B00095480621B0EE490AF0EE690A784400F005
:1049C0009FFB53EC192B51EC100BFBF724FC41EC33
:1049D0001A0B8E48B0EE490AF0EE690A04217844B9
:1049E00000F08EFB53EC192B51EC100BFBF713FC72
:1049F00053EC182BFBF744FD41EC100B51EC1A0B58
:104A000053EC102BFBF7E3FDCDE900019DED000B0E
:104A100053EC102B9DED100B51EC100BFBF7FBFB37
:104A20009DED101B53EC112BFBF72AFDD2E09DED01
:104A3000100B51EC100B01F06FF953EC182BFBF736
:104A4000C3FD9FED730BCDE9000153EC102B9DEDE1
:104A5000000B51EC100BFBF7DEFB41EC190B6E4821
:104A60000621B0EE490AF0EE690A784400F048FBEE
:104A700053EC192B51EC100BFBF7CDFB41EC1B0B4E
:104A80006648B0EE490AF0EE690A0421784400F065
:104A900037FB53EC192B51EC100BFBF7BCFB53EC21
:104AA000182BFBF7EDFC41EC1C0B51EC190B01F042
:104AB000B5FB41EC180B5A489FED5BABA04222DCE2
:104AC00053EC1C2B51EC1B0BFBF781FDCDE90001D6
:104AD0009DED000B51EC180B53EC102BFBF79BFBDF
:104AE00053EC182BFBF7CCFC53EC1A2BFBF793FB86
:104AF00053EC1D2BFBF765FD53EC1E2BFBF764FD00
:104B000041EC100B5FE08DED008B002000909DEDDF
:104B1000000B51EC180B53EC102BFBF7B1FC9DED87
:104B2000000B41EC1E0B53EC102B51EC100BFBF760
:104B300072FB53EC192BFBF747FD53EC1E2BFBF7D5
:104B400046FD41EC190B53EC1C2B51EC1B0BFBF7F6
:104B50003EFD41EC1B0B53EC1A2B51EC190BFBF7F0
:104B60005AFB53EC1D2BFBF72FFD41EC190B53ECBB
:104B70001A2B51EC180BFBF74EFB53EC1B2BFBF7DE
:104B80004AFB53EC192BFBF71CFD9DED000B41EC90
:104B9000180B53EC1A2B51EC100BFBF73CFB9FED61
:104BA000249B53EC192BFBF70FFD41EC100B51EC40
:104BB000180B53EC102BFBF704FD53EC192BFBF7F0
:104BC00003FD41EC100B002D3FF7C5AE51EC100B6F
:104BD00081F0004141EC100BBDE600000000000038
:104BE0000000F03F00000000075C143326A6913C53
:104BF000182D4454FB21F93F0000F07F0000E03FF6
:104C0000000000000000F03FE81E0000F61E00005B
:104C1000000000000000E03F3A1E0000481E0000B7
:104C20003333EF3F000000000000000000000040B0
:104C3000182D4454FB21E93F70B59B482DED020B24
:104C40002DED068B079D25F00044A04218DC974807
:104C5000844202DC0AD1069840B19DED060BBDEC02
:104C6000068B02B0BDE8704000F0C6BA002DCCBF84
:104C70009FED8F0B9FED900BBDEC068B02B070BDCE
:104C80008F48A04215DD8F48A042D8BF4FF0FF34B7
:104C900058DD9DED060B51EC100BFFF704FE0428C8
:104CA00008BF00F0CDFA9DED060BBDEC068B02B0FF
:104CB00070BD9DED060B51EC100B01F02DF8CDE908
:104CC000060181489FED828BA0423CDD8248A042D4
:104CD0001FDD00249FED82AB9DED060B53EC1A2BDC
:104CE00051EC100BFBF7CCFB9DED060B41EC190BC7
:104CF00053EC1A2B51EC100BFBF78DFA53EC182BDD
:104D0000FBF75FFC53EC192BFBF761FCCDE90601C7
:104D100049E09DED060B012453EC182B51EC100BD0
:104D2000FBF7AEFB9DED060B41EC190B53EC182B7A
:104D300051EC100BFBF745FC53EC192BFBF747FC30
:104D4000CDE906012FE06848A0421FDD02249FED57
:104D5000689B9DED060B53EC192B51EC100BFBF7E8
:104D60005AFA53EC182BFBF78BFB9DED060B41EC2D
:104D7000180B53EC192B51EC100BFBF722FC53ECE6
:104D8000182BFBF724FCCDE906010CE09DED060B8A
:104D9000032453EC102B9FED580B51EC100BFBF739
:104DA00016FCCDE906019DED060B53EC102B51ECE2
:104DB000100BFBF730FA41EC180B53EC182BFBF7F8
:104DC0002AFA41EC190B4E480621B0EE490AF0EEE2
:104DD000690A784400F094F953EC182B51EC100B4D
:104DE000FBF719FA41EC180B4648B0EE490AF0EE11
:104DF000690A0521784400F083F953EC192B51EC32
:104E0000100BFBF708FA41EC100B51EC180B53ECAC
:104E1000102B002C0EDAFBF733FB9DED061B53EC39
:104E2000112BFBF7F8F99DED061B53EC112BFBF74B
:104E3000CBFB35E0FBF724FB9DED061B53EC112B60
:104E4000FBF7E9F941EC100B2F48784400EBC40064
:104E500090ED001B51EC100B53EC112BFBF7B1FB49
:104E60009DED061B53EC112BFBF7ABFB41EC100B3C
:104E70002648784400EBC40090ED001B51EC100B69
:104E800053EC112BFBF7A0FB41EC100B002DA2BF44
:104E9000BDEC068B02B070BD51EC100B81F00041EF
:104EA00041EC100B01E70000000010440000F07F0F
:104EB000182D4454FB21F93F182D4454FB21F9BF10
:104EC0000000DC3F0000203E0000F33F0000000037
:104ED000000000000000F03F0000E63F000000007E
:104EE00000000000000000400080034000000000BF
:104EF000000000000000F83F000000000000F0BFCC
:104F00008A1B0000401B0000CA1A0000821A000021
:104F100070B56B4E2DED040B2DED028B82B0DDF8DC
:104F20001CC0DDE905235C422CF000411C4341EA32
:104F3000D474049D22F00040B44205D86C422C4346
:104F400040EAD474B4420BD99DED061B9DED040BD1
:104F500002B0BDEC028B04B0BDE8704000F056B961
:104F6000ACF14054A4F17F641C430BD0022404EA4A
:104F7000AC7444EAD27405439FED538B9FED542BE0
:104F800007D015E09DED040B51EC100B00F078FEFE
:104F900042E0002C11BF012C9DED040B02B0BDECD2
:104FA000028B04BF04B070BD022C38D0032C3BD060
:104FB0000B439FED491B9FED4A0B0AD0B14218D11C
:104FC000B04209D121F0804120F080400791059046
:104FD0000FE0002A15DA10E0434B7B44002C08BF99
:104FE00093ED000B0DD0012C10D0022C17D0032C08
:104FF0001AD0B0421DD1002A03DAB0EE410AF0EE19
:10500000610A02B0BDEC028B04B070BD93ED000BE1
:1050100051EC100B81F0004141EC100BF1E7B0EEC8
:10502000480AF0EE680AECE7B0EE420AF0EE620AD7
:10503000E7E7401A00153C28C8BF8DED000B19DCCE
:10504000BCF1000FBEBF10F13C0F9FED290B8DEDA1
:10505000000B0FDB9DED060B53EC102B9DED040BAD
:1050600051EC100BFBF7B3FA00F056FE00F008FE0F
:10507000CDE90001002C08BF9DED000BC1D0012C33
:1050800010D0022C9FED1C0B53EC102B9DED000B50
:1050900051EC100B0DD0FBF794FA53EC182BFBF7E7
:1050A00090FAB9E7019880F0004001909DED000B67
:1050B000A7E7FBF786FA53EC182BFBF785FAABE76B
:1050C0000000F07F00000000182D4454FB2109402F
:1050D000182D4454FB2109C0182D4454FB21F9BF5D
:1050E000182D4454FB21F93FB219000000000000C4
:1050F0000000000000000000075C143326A6A13C5D
:1051000070B504462DED028B4D1E00EBC500B0EED0
:10511000408AF0EE608A90ED000B35F0060017D063
:1051200053EC182B51EC100BFBF775F841EC100BFE
:105130006D1E04EBC50090ED001B51EC100B53EC01
:10514000112BFBF79DF941EC100B35F00600E7D170
:10515000022D36D0042D1CD0062D1CBFBDEC028BB9
:1051600070BD53EC182B51EC100BFBF754F894ED79
:105170000A1B53EC112BFBF783F953EC182BFBF7AD
:105180004AF894ED081B53EC112BFBF779F941EC2D
:10519000100B53EC182B51EC100BFBF73CF894ED73
:1051A000061B53EC112BFBF76BF953EC182BFBF799
:1051B00032F894ED040B53EC102BFBF761F941EC42
:1051C000100B53EC182B51EC100BFBF724F894ED5B
:1051D000021B53EC112BFBF753F953EC182BFBF785
:1051E0001AF894ED001B53EC112BFBF749F9BDECB9
:1051F000028B41EC100B70BD10B553EC102B51EC31
:10520000100BFBF73DF941EC100B10BD10B553EC42
:10521000112B51EC100BFBF733F941EC100B10BDC7
:105220009FED050B10B553EC102B51EC100BFBF759
:10523000CEF941EC100B10BD000000000000000092
:105240009FED050B10B553EC102B51EC100BFAF73A
:10525000E2FF41EC100B10BD000000000000001048
:1052600002E008C8121F08C1002AFAD1704770472F
:10527000002001E001C1121F002AFBD1704700008D
:1052800001490860704700000803002010B5A52000
:105290001D4908706F20A1F801000020C8701B484C
:1052A0000A680260097901710521FBF7E5FA40F20D
:1052B00001301549A1F805004FF48270A1F80700EC
:1052C000134890F849101048A0F809101048B0F899
:1052D000B7100D48A0F80B100A210E48006800F026
:1052E00033F90948B0F80100821C0749491D0748F5
:1052F000401DFAF765FF78210448FBF7A5FA7821ED
:105300000248FCF7DCFC10BDD00900202C06002070
:10531000A00400205801002010B5A5201D490870E8
:105320005120A1F801000020C8701B480A680260E3
:10533000097901710521FBF79FFA40F20130154907
:10534000A1F8050040F20310A1F80700134890F8F7
:1053500049101048A0F809101048B0F8B7100D48CF
:10536000A0F80B100A210E48006800F0E3F9094884
:10537000B0F80100821C0749491D0748401DFAF793
:105380001FFF5A210448FBF75FFA5A210248FCF735
:1053900096FC10BD1A0B00202C060020A004002053
:1053A0005801002010B5A5201D4908706F20A1F8F4
:1053B00001000020C8701B480A6802600979017169
:1053C0000521FBF759FA40F201301549A1F8050013
:1053D0004FF48270A1F80700134890F84910104864
:1053E000A0F809101048B0F8B7100D48A0F80B103D
:1053F0000A210E48006800F061FA0948B0F801007F
:10540000821C0749491D0748401DFAF7D9FE78213B
:105410000448FBF719FA78210248FCF750FC10BD4C
:10542000480A00202C060020A0040020580100207B
:1054300010B5A5201D4908702420A1F80100002006
:10544000C8701B480A680260097901710521FBF7E1
:1054500013FA40F201301549A1F805004FF48170AC
:10546000A1F80700134890F849101048A0F8091057
:105470001048B0F8B7100D48A0F80B100A210E48DC
:10548000006800F00BFB0948B0F80100821C0749D6
:10549000491D0748401DFAF793FE2D210448FBF7EC
:1054A000D3F92D210248FCF70AFC10BDC00A0020E8
:1054B0002C060020A00400205801002010B5A520D3
:1054C0001D4908702420A1F801000020C8701B4865
:1054D0000A680260097901710521FBF7CDF940F2F4
:1054E00001301549A1F805004FF48170A1F80700BB
:1054F000134890F849101048A0F809101048B0F867
:10550000B7100D48A0F80B100A210E48006800F0F3
:1055100017FB0948B0F80100821C0749491D0748DC
:10552000401DFAF74DFE2D210448FBF78DF92D2182
:105530000248FCF7C4FB10BDED0A00202C06002039
:10554000A00400205801002070B58AB004460D4622
:1055500040F23A2105F2B6300022CDE90612CDE93B
:10556000080140F2B630401B02210292CDE903212E
:1055700005900120032113460246CDE9001065A1E4
:105580006548FDF705FA04F23A2105F2B632002328
:105590000846CDE907320991069040F2B630401B2B
:1055A00002210293CDE90331059001200321024637
:1055B000CDE9001059A158480F30FDF7E9F940F244
:1055C0003A2000EB440105F2B630002340F23A22C3
:1055D00002EB4402CDE90623CDE9080140F2B630E2
:1055E000401B02210293CDE90331059001200321E4
:1055F0000246CDE900104AA147481E30FDF7C8F920
:1056000004EB440000F23A2105F2B632002304EB29
:10561000440000F23A20CDE907320991069040F2A9
:10562000B630401B02210293CDE9033105900120E1
:1056300003210246CDE900103AA137482D30FDF78D
:10564000A7F940F23A2000EB840105F2B6300023BE
:1056500040F23A2202EB8402CDE90623CDE90801AB
:1056600040F2B630401B02210293CDE90331059090
:10567000012003210246CDE900102BA126483C3031
:10568000FDF786F904EB840000F23A2105F2B63208
:10569000002304EB840000F23A20CDE9073209919F
:1056A000069040F2B630401B02210293CDE903314F
:1056B0000590012003210246CDE900101BA11648E8
:1056C0004B30FDF765F904EB440040F23A2101EB61
:1056D000400105F2B630002304EB440240F23A26C2
:1056E00006EB4202CDE90623CDE9080140F2B630CF
:1056F000401B02210293CDE90331059001200321D3
:105700000246CDE900100AA103485A30FDF740F9DE
:105710000AB070BD41483100DD0900204148320027
:105720004148330041483400414835004148360083
:105730004148370030B58AB004460D4604EB4400BA
:1057400000EB0410C0F5FF7105F57570002304EB44
:10575000440202EB0412C2F5FF72CDE90623CDE943
:10576000080140F2B630401B1E3801210293CDE9FA
:1057700003310590084604210322CDE9001049A118
:105780004948FDF705F9C4EB0410C0F5FF7105F2B7
:10579000DE300023C4EB0412C2F5FF72CDE906230C
:1057A000CDE9080140F2B630401B283801210293B0
:1057B000CDE903310590084604210322CDE900100C
:1057C0003AA139480F30FDF7E3F804EB440000EB51
:1057D000C400C0F5FF7105F57A70002304EB4402A4
:1057E00002EBC402C2F5FF72CDE90623CDE9080140
:1057F00040F2B630401B323802210293CDE903312A
:105800000590082004210122CDE9001028A1264896
:105810001E30FDF7BDF8C4EBC400C0F5FF7105F202
:10582000F2300023C4EBC402C2F5FF72CDE90623B7
:10583000CDE9080140F2B630401B3C38022102930A
:10584000CDE903310590084604210122CDE900107D
:1058500018A115482D30FDF79BF804EB4400C0F566
:10586000FF7105F57F70002304EB4402C2F5FF725F
:10587000CDE90623CDE9080140F2B630401B463899
:1058800002210293CDE90331059003200421012276
:10589000CDE9001008A104483C30FDF779F80AB0C2
:1058A00030BD0000414C3100270B0020414C32003C
:1058B000414C3300414C3400414C350070B58AB046
:1058C00004460D464FF4FF7105F2B6300022CDE9D3
:1058D0000612CDE9080140F2B630401B01210292C8
:1058E000CDE9032105900320009013460A4663A1E9
:1058F00001906348FDF74CF8C4F5FF7105F2B6302E
:105900000023C4F5FF72CDE90623CDE9080140F27A
:10591000B630401B01210293CDE9033105900320ED
:1059200000900A4657A1019055480F30FDF730F816
:105930004FF4FF70A0EB440105F2B63000234FF4A2
:10594000FF72A2EB4402CDE90623CDE9080140F243
:10595000B630401B01210293CDE9033105900320AD
:1059600000900A4648A1019045481E30FDF710F806
:105970004FF4FF70A0EB840105F2B63000234FF422
:10598000FF72A2EB8402CDE90623CDE9080140F2C3
:10599000B630401B01210293CDE90331059003206D
:1059A00000900A4639A1019035482D30FCF7F0FFF0
:1059B00004EB8400C0F5FF7105F2B630002304EB60
:1059C0008402C2F5FF72CDE90623CDE9080140F259
:1059D000B630401B01210293CDE90331059003202D
:1059E00000900A462AA1019025483C30FCF7D0FFE0
:1059F00004EB44004FF4FF71A1EB400105F2B63017
:105A0000002304EB44024FF4FF76A6EB4202CDE9FB
:105A10000623CDE9080140F2B630401B0121029374
:105A2000CDE903310590062003210122CDE90010C4
:105A300018A113484B30FCF7ABFF3046A0EBC40174
:105A400005F2B63000233246A2EBC402CDE90623AC
:105A5000CDE9080140F2B630401B01210293CDE9A7
:105A600003310590022003210122CDE900100AA193
:105A700003485A30FCF78CFF0AB070BD414C31002E
:105A8000550A0020414C3200414C3300414C340057
:105A9000414C3500414C3600414C370070B58AB05E
:105AA00004460D4604EBC400C0F5FF7105F2B630A4
:105AB000002304EBC402C2F5FF72CDE90623CDE951
:105AC000080140F2B630401B01210293CDE90331B9
:105AD0000590082003210122CDE9001015A11648E8
